{
  "address": "0x932FfE58f71C6d82718aBa243BbFf9067c30c09D",
  "abi": [
    {
      "inputs": [
        {
          "internalType": "address",
          "name": "hatcherDeveloperBadge",
          "type": "address"
        },
        {
          "internalType": "uint256",
          "name": "revenueShareRate",
          "type": "uint256"
        }
      ],
      "stateMutability": "nonpayable",
      "type": "constructor"
    },
    {
      "anonymous": false,
      "inputs": [
        {
          "indexed": true,
          "internalType": "address",
          "name": "owner",
          "type": "address"
        },
        {
          "indexed": true,
          "internalType": "address",
          "name": "approved",
          "type": "address"
        },
        {
          "indexed": true,
          "internalType": "uint256",
          "name": "tokenId",
          "type": "uint256"
        }
      ],
      "name": "Approval",
      "type": "event"
    },
    {
      "anonymous": false,
      "inputs": [
        {
          "indexed": true,
          "internalType": "address",
          "name": "owner",
          "type": "address"
        },
        {
          "indexed": true,
          "internalType": "address",
          "name": "operator",
          "type": "address"
        },
        {
          "indexed": false,
          "internalType": "bool",
          "name": "approved",
          "type": "bool"
        }
      ],
      "name": "ApprovalForAll",
      "type": "event"
    },
    {
      "anonymous": false,
      "inputs": [
        {
          "indexed": true,
          "internalType": "uint256",
          "name": "serviceId",
          "type": "uint256"
        },
        {
          "indexed": true,
          "internalType": "address",
          "name": "owner",
          "type": "address"
        },
        {
          "indexed": false,
          "internalType": "uint256",
          "name": "maxUserLimit",
          "type": "uint256"
        },
        {
          "indexed": false,
          "internalType": "uint256",
          "name": "fee",
          "type": "uint256"
        }
      ],
      "name": "Mint",
      "type": "event"
    },
    {
      "anonymous": false,
      "inputs": [
        {
          "indexed": true,
          "internalType": "address",
          "name": "previousOwner",
          "type": "address"
        },
        {
          "indexed": true,
          "internalType": "address",
          "name": "newOwner",
          "type": "address"
        }
      ],
      "name": "OwnershipTransferred",
      "type": "event"
    },
    {
      "anonymous": false,
      "inputs": [
        {
          "indexed": true,
          "internalType": "uint256",
          "name": "revenueShareRate",
          "type": "uint256"
        }
      ],
      "name": "SetRevenueShare",
      "type": "event"
    },
    {
      "anonymous": false,
      "inputs": [
        {
          "indexed": true,
          "internalType": "uint256",
          "name": "serviceId",
          "type": "uint256"
        },
        {
          "indexed": true,
          "internalType": "address",
          "name": "owner",
          "type": "address"
        },
        {
          "indexed": false,
          "internalType": "uint256",
          "name": "maxUserLimit",
          "type": "uint256"
        },
        {
          "indexed": false,
          "internalType": "uint256",
          "name": "fee",
          "type": "uint256"
        }
      ],
      "name": "SetServiceProps",
      "type": "event"
    },
    {
      "anonymous": false,
      "inputs": [
        {
          "indexed": true,
          "internalType": "address",
          "name": "from",
          "type": "address"
        },
        {
          "indexed": true,
          "internalType": "address",
          "name": "to",
          "type": "address"
        },
        {
          "indexed": true,
          "internalType": "uint256",
          "name": "tokenId",
          "type": "uint256"
        }
      ],
      "name": "Transfer",
      "type": "event"
    },
    {
      "anonymous": false,
      "inputs": [
        {
          "indexed": true,
          "internalType": "uint256",
          "name": "serviceId",
          "type": "uint256"
        },
        {
          "indexed": true,
          "internalType": "address",
          "name": "from",
          "type": "address"
        },
        {
          "indexed": true,
          "internalType": "address",
          "name": "to",
          "type": "address"
        }
      ],
      "name": "TransferFrom",
      "type": "event"
    },
    {
      "anonymous": false,
      "inputs": [
        {
          "indexed": true,
          "internalType": "address",
          "name": "to",
          "type": "address"
        },
        {
          "indexed": false,
          "internalType": "uint256",
          "name": "amount",
          "type": "uint256"
        }
      ],
      "name": "Withdraw",
      "type": "event"
    },
    {
      "inputs": [],
      "name": "MAX_SERVICES_PER_USER",
      "outputs": [
        {
          "internalType": "uint256",
          "name": "",
          "type": "uint256"
        }
      ],
      "stateMutability": "view",
      "type": "function"
    },
    {
      "inputs": [],
      "name": "MINT_PRICE",
      "outputs": [
        {
          "internalType": "uint256",
          "name": "",
          "type": "uint256"
        }
      ],
      "stateMutability": "view",
      "type": "function"
    },
    {
      "inputs": [
        {
          "internalType": "uint256",
          "name": "serviceId",
          "type": "uint256"
        },
        {
          "internalType": "uint256",
          "name": "amount",
          "type": "uint256"
        }
      ],
      "name": "addServiceRevenue",
      "outputs": [],
      "stateMutability": "payable",
      "type": "function"
    },
    {
      "inputs": [
        {
          "internalType": "address",
          "name": "to",
          "type": "address"
        },
        {
          "internalType": "uint256",
          "name": "tokenId",
          "type": "uint256"
        }
      ],
      "name": "approve",
      "outputs": [],
      "stateMutability": "nonpayable",
      "type": "function"
    },
    {
      "inputs": [
        {
          "internalType": "address",
          "name": "owner",
          "type": "address"
        }
      ],
      "name": "balanceOf",
      "outputs": [
        {
          "internalType": "uint256",
          "name": "",
          "type": "uint256"
        }
      ],
      "stateMutability": "view",
      "type": "function"
    },
    {
      "inputs": [
        {
          "internalType": "uint256",
          "name": "serviceId",
          "type": "uint256"
        }
      ],
      "name": "exists",
      "outputs": [
        {
          "internalType": "bool",
          "name": "",
          "type": "bool"
        }
      ],
      "stateMutability": "view",
      "type": "function"
    },
    {
      "inputs": [
        {
          "internalType": "uint256",
          "name": "tokenId",
          "type": "uint256"
        }
      ],
      "name": "getApproved",
      "outputs": [
        {
          "internalType": "address",
          "name": "",
          "type": "address"
        }
      ],
      "stateMutability": "view",
      "type": "function"
    },
    {
      "inputs": [
        {
          "internalType": "address",
          "name": "owner",
          "type": "address"
        }
      ],
      "name": "getOwnerServices",
      "outputs": [
        {
          "components": [
            {
              "internalType": "uint256",
              "name": "serviceId",
              "type": "uint256"
            },
            {
              "internalType": "address",
              "name": "owner",
              "type": "address"
            },
            {
              "internalType": "uint256",
              "name": "createdTime",
              "type": "uint256"
            },
            {
              "internalType": "uint256",
              "name": "userCount",
              "type": "uint256"
            },
            {
              "internalType": "uint256",
              "name": "maxUserLimit",
              "type": "uint256"
            },
            {
              "internalType": "uint256",
              "name": "fee",
              "type": "uint256"
            },
            {
              "internalType": "uint256",
              "name": "revenue",
              "type": "uint256"
            }
          ],
          "internalType": "struct HatcherServiceCertificate.Service[]",
          "name": "",
          "type": "tuple[]"
        }
      ],
      "stateMutability": "view",
      "type": "function"
    },
    {
      "inputs": [
        {
          "internalType": "address",
          "name": "owner",
          "type": "address"
        }
      ],
      "name": "getServiceCount",
      "outputs": [
        {
          "internalType": "uint256",
          "name": "",
          "type": "uint256"
        }
      ],
      "stateMutability": "view",
      "type": "function"
    },
    {
      "inputs": [
        {
          "internalType": "uint256",
          "name": "serviceId",
          "type": "uint256"
        }
      ],
      "name": "getServiceInfo",
      "outputs": [
        {
          "components": [
            {
              "internalType": "uint256",
              "name": "serviceId",
              "type": "uint256"
            },
            {
              "internalType": "address",
              "name": "owner",
              "type": "address"
            },
            {
              "internalType": "uint256",
              "name": "createdTime",
              "type": "uint256"
            },
            {
              "internalType": "uint256",
              "name": "userCount",
              "type": "uint256"
            },
            {
              "internalType": "uint256",
              "name": "maxUserLimit",
              "type": "uint256"
            },
            {
              "internalType": "uint256",
              "name": "fee",
              "type": "uint256"
            },
            {
              "internalType": "uint256",
              "name": "revenue",
              "type": "uint256"
            }
          ],
          "internalType": "struct HatcherServiceCertificate.Service",
          "name": "ret",
          "type": "tuple"
        }
      ],
      "stateMutability": "view",
      "type": "function"
    },
    {
      "inputs": [
        {
          "internalType": "uint256",
          "name": "serviceId",
          "type": "uint256"
        }
      ],
      "name": "getServiceRevenue",
      "outputs": [
        {
          "internalType": "uint256",
          "name": "",
          "type": "uint256"
        }
      ],
      "stateMutability": "view",
      "type": "function"
    },
    {
      "inputs": [
        {
          "internalType": "uint256",
          "name": "serviceId",
          "type": "uint256"
        }
      ],
      "name": "getServiceUserCount",
      "outputs": [
        {
          "internalType": "uint256",
          "name": "",
          "type": "uint256"
        }
      ],
      "stateMutability": "view",
      "type": "function"
    },
    {
      "inputs": [
        {
          "internalType": "address",
          "name": "hatcherServicePassport",
          "type": "address"
        }
      ],
      "name": "init",
      "outputs": [],
      "stateMutability": "nonpayable",
      "type": "function"
    },
    {
      "inputs": [
        {
          "internalType": "address",
          "name": "owner",
          "type": "address"
        },
        {
          "internalType": "address",
          "name": "operator",
          "type": "address"
        }
      ],
      "name": "isApprovedForAll",
      "outputs": [
        {
          "internalType": "bool",
          "name": "",
          "type": "bool"
        }
      ],
      "stateMutability": "view",
      "type": "function"
    },
    {
      "inputs": [
        {
          "internalType": "uint256",
          "name": "maxUserLimit",
          "type": "uint256"
        },
        {
          "internalType": "uint256",
          "name": "fee",
          "type": "uint256"
        }
      ],
      "name": "mint",
      "outputs": [
        {
          "components": [
            {
              "internalType": "uint256",
              "name": "serviceId",
              "type": "uint256"
            },
            {
              "internalType": "address",
              "name": "owner",
              "type": "address"
            },
            {
              "internalType": "uint256",
              "name": "createdTime",
              "type": "uint256"
            },
            {
              "internalType": "uint256",
              "name": "userCount",
              "type": "uint256"
            },
            {
              "internalType": "uint256",
              "name": "maxUserLimit",
              "type": "uint256"
            },
            {
              "internalType": "uint256",
              "name": "fee",
              "type": "uint256"
            },
            {
              "internalType": "uint256",
              "name": "revenue",
              "type": "uint256"
            }
          ],
          "internalType": "struct HatcherServiceCertificate.Service",
          "name": "service",
          "type": "tuple"
        }
      ],
      "stateMutability": "payable",
      "type": "function"
    },
    {
      "inputs": [],
      "name": "name",
      "outputs": [
        {
          "internalType": "string",
          "name": "",
          "type": "string"
        }
      ],
      "stateMutability": "view",
      "type": "function"
    },
    {
      "inputs": [],
      "name": "owner",
      "outputs": [
        {
          "internalType": "address",
          "name": "",
          "type": "address"
        }
      ],
      "stateMutability": "view",
      "type": "function"
    },
    {
      "inputs": [
        {
          "internalType": "uint256",
          "name": "tokenId",
          "type": "uint256"
        }
      ],
      "name": "ownerOf",
      "outputs": [
        {
          "internalType": "address",
          "name": "",
          "type": "address"
        }
      ],
      "stateMutability": "view",
      "type": "function"
    },
    {
      "inputs": [],
      "name": "renounceOwnership",
      "outputs": [],
      "stateMutability": "nonpayable",
      "type": "function"
    },
    {
      "inputs": [
        {
          "internalType": "address",
          "name": "from",
          "type": "address"
        },
        {
          "internalType": "address",
          "name": "to",
          "type": "address"
        },
        {
          "internalType": "uint256",
          "name": "tokenId",
          "type": "uint256"
        }
      ],
      "name": "safeTransferFrom",
      "outputs": [],
      "stateMutability": "nonpayable",
      "type": "function"
    },
    {
      "inputs": [
        {
          "internalType": "address",
          "name": "from",
          "type": "address"
        },
        {
          "internalType": "address",
          "name": "to",
          "type": "address"
        },
        {
          "internalType": "uint256",
          "name": "tokenId",
          "type": "uint256"
        },
        {
          "internalType": "bytes",
          "name": "data",
          "type": "bytes"
        }
      ],
      "name": "safeTransferFrom",
      "outputs": [],
      "stateMutability": "nonpayable",
      "type": "function"
    },
    {
      "inputs": [
        {
          "internalType": "address",
          "name": "operator",
          "type": "address"
        },
        {
          "internalType": "bool",
          "name": "approved",
          "type": "bool"
        }
      ],
      "name": "setApprovalForAll",
      "outputs": [],
      "stateMutability": "nonpayable",
      "type": "function"
    },
    {
      "inputs": [
        {
          "internalType": "uint256",
          "name": "revenueShareRate",
          "type": "uint256"
        }
      ],
      "name": "setRevenueShare",
      "outputs": [],
      "stateMutability": "nonpayable",
      "type": "function"
    },
    {
      "inputs": [
        {
          "internalType": "uint256",
          "name": "serviceId",
          "type": "uint256"
        },
        {
          "internalType": "uint256",
          "name": "maxUserLimit",
          "type": "uint256"
        },
        {
          "internalType": "uint256",
          "name": "fee",
          "type": "uint256"
        }
      ],
      "name": "setServiceProps",
      "outputs": [],
      "stateMutability": "nonpayable",
      "type": "function"
    },
    {
      "inputs": [
        {
          "internalType": "bytes4",
          "name": "interfaceId",
          "type": "bytes4"
        }
      ],
      "name": "supportsInterface",
      "outputs": [
        {
          "internalType": "bool",
          "name": "",
          "type": "bool"
        }
      ],
      "stateMutability": "view",
      "type": "function"
    },
    {
      "inputs": [],
      "name": "symbol",
      "outputs": [
        {
          "internalType": "string",
          "name": "",
          "type": "string"
        }
      ],
      "stateMutability": "view",
      "type": "function"
    },
    {
      "inputs": [
        {
          "internalType": "uint256",
          "name": "tokenId",
          "type": "uint256"
        }
      ],
      "name": "tokenURI",
      "outputs": [
        {
          "internalType": "string",
          "name": "",
          "type": "string"
        }
      ],
      "stateMutability": "view",
      "type": "function"
    },
    {
      "inputs": [
        {
          "internalType": "address",
          "name": "from",
          "type": "address"
        },
        {
          "internalType": "address",
          "name": "to",
          "type": "address"
        },
        {
          "internalType": "uint256",
          "name": "serviceId",
          "type": "uint256"
        }
      ],
      "name": "transferFrom",
      "outputs": [],
      "stateMutability": "nonpayable",
      "type": "function"
    },
    {
      "inputs": [
        {
          "internalType": "address",
          "name": "newOwner",
          "type": "address"
        }
      ],
      "name": "transferOwnership",
      "outputs": [],
      "stateMutability": "nonpayable",
      "type": "function"
    },
    {
      "inputs": [
        {
          "internalType": "address payable",
          "name": "_to",
          "type": "address"
        },
        {
          "internalType": "uint256",
          "name": "_amount",
          "type": "uint256"
        }
      ],
      "name": "withdraw",
      "outputs": [],
      "stateMutability": "nonpayable",
      "type": "function"
    }
  ],
  "transactionHash": "0x950a097912731f336fb7595d93a15b1c7e8ad3ee7a65e86f38530d55d6018113",
  "args": [
    "0x11A8fBF2eeB3A24fCe76482598C6895709Ca4f4E",
    20
  ],
  "numDeployments": 2,
  "solcInputHash": "1d562a531f2935bb6db3e51782dd5697",
  "bytecode": "0x60806040523480156200001157600080fd5b5060405162002c3438038062002c348339810160408190526200003491620001ed565b604080518082018252601b81527f486174636865722053657276696365204365727469666963617465000000000060208083019182528351808501909452600384526248534360e81b908401528151919291620000949160009162000147565b508051620000aa90600190602084019062000147565b505050620000c7620000c1620000f160201b60201c565b620000f5565b600980546001600160a01b0319166001600160a01b03939093169290921790915560075562000266565b3390565b600680546001600160a01b038381166001600160a01b0319831681179093556040519116919082907f8be0079c531659141344cd1fd0a4f28419497f9722a3daafe3b4186f6b6457e090600090a35050565b828054620001559062000229565b90600052602060002090601f016020900481019282620001795760008555620001c4565b82601f106200019457805160ff1916838001178555620001c4565b82800160010185558215620001c4579182015b82811115620001c4578251825591602001919060010190620001a7565b50620001d2929150620001d6565b5090565b5b80821115620001d25760008155600101620001d7565b600080604083850312156200020157600080fd5b82516001600160a01b03811681146200021957600080fd5b6020939093015192949293505050565b600181811c908216806200023e57607f821691505b602082108114156200026057634e487b7160e01b600052602260045260246000fd5b50919050565b6129be80620002766000396000f3fe6080604052600436106101cd5760003560e01c8063794dc9fe116100f7578063ba16b07411610095578063daac908711610064578063daac90871461054a578063e985e9c51461055f578063f2fde38b1461057f578063f3fef3a31461059f57600080fd5b8063ba16b074146104cf578063c002d23d146104ef578063c87b56dd1461050a578063d9f16af61461052a57600080fd5b80638da5cb5b116100d15780638da5cb5b1461045c57806395d89b411461047a578063a22cb4651461048f578063b88d4fde146104af57600080fd5b8063794dc9fe146103fc57806382a8ea581461042957806388dec5ce1461044957600080fd5b806323b872dd1161016f5780636e669d7a1161013e5780636e669d7a1461036357806370a0823114610383578063715018a6146103b157806378f32cd7146103c657600080fd5b806323b872dd146102e357806342842e0e146103035780634f558e79146103235780636352211e1461034357600080fd5b8063095ea7b3116101ab578063095ea7b31461026157806311186dec1461028357806319ab453c146102a35780631b2ef1ca146102c357600080fd5b806301ffc9a7146101d257806306fdde0314610207578063081812fc14610229575b600080fd5b3480156101de57600080fd5b506101f26101ed36600461237a565b6105bf565b60405190151581526020015b60405180910390f35b34801561021357600080fd5b5061021c610611565b6040516101fe91906123ef565b34801561023557600080fd5b50610249610244366004612402565b6106a3565b6040516001600160a01b0390911681526020016101fe565b34801561026d57600080fd5b5061028161027c366004612430565b6106ca565b005b34801561028f57600080fd5b5061028161029e36600461245c565b6107e5565b3480156102af57600080fd5b506102816102be366004612488565b6109ab565b6102d66102d13660046124a5565b6109d5565b6040516101fe9190612511565b3480156102ef57600080fd5b506102816102fe36600461251f565b610be1565b34801561030f57600080fd5b5061028161031e36600461251f565b610f1a565b34801561032f57600080fd5b506101f261033e366004612402565b610f35565b34801561034f57600080fd5b5061024961035e366004612402565b610f40565b34801561036f57600080fd5b5061028161037e366004612402565b610fa0565b34801561038f57600080fd5b506103a361039e366004612488565b61102c565b6040519081526020016101fe565b3480156103bd57600080fd5b506102816110b2565b3480156103d257600080fd5b506103a36103e1366004612488565b6001600160a01b031660009081526008602052604090205490565b34801561040857600080fd5b5061041c610417366004612488565b6110c6565b6040516101fe9190612560565b34801561043557600080fd5b506102d6610444366004612402565b6111e8565b6102816104573660046124a5565b611381565b34801561046857600080fd5b506006546001600160a01b0316610249565b34801561048657600080fd5b5061021c6114f8565b34801561049b57600080fd5b506102816104aa3660046125ae565b611507565b3480156104bb57600080fd5b506102816104ca366004612602565b611516565b3480156104db57600080fd5b506103a36104ea366004612402565b611548565b3480156104fb57600080fd5b506103a366b1a2bc2ec5000081565b34801561051657600080fd5b5061021c610525366004612402565b6115b6565b34801561053657600080fd5b506103a3610545366004612402565b61162a565b34801561055657600080fd5b506103a3600a81565b34801561056b57600080fd5b506101f261057a3660046126e2565b61163f565b34801561058b57600080fd5b5061028161059a366004612488565b61166d565b3480156105ab57600080fd5b506102816105ba366004612430565b6116e6565b60006001600160e01b031982166380ac58cd60e01b14806105f057506001600160e01b03198216635b5e139f60e01b145b8061060b57506301ffc9a760e01b6001600160e01b03198316145b92915050565b60606000805461062090612710565b80601f016020809104026020016040519081016040528092919081815260200182805461064c90612710565b80156106995780601f1061066e57610100808354040283529160200191610699565b820191906000526020600020905b81548152906001019060200180831161067c57829003601f168201915b5050505050905090565b60006106ae8261189c565b506000908152600460205260409020546001600160a01b031690565b60006106d582610f40565b9050806001600160a01b0316836001600160a01b031614156107485760405162461bcd60e51b815260206004820152602160248201527f4552433732313a20617070726f76616c20746f2063757272656e74206f776e656044820152603960f91b60648201526084015b60405180910390fd5b336001600160a01b03821614806107645750610764813361163f565b6107d65760405162461bcd60e51b815260206004820152603d60248201527f4552433732313a20617070726f76652063616c6c6572206973206e6f7420746f60448201527f6b656e206f776e6572206f7220617070726f76656420666f7220616c6c000000606482015260840161073f565b6107e083836118ec565b505050565b6107ee8361195a565b61083a5760405162461bcd60e51b815260206004820152601860248201527f73657276696365496420646f6573206e6f742065786973740000000000000000604482015260640161073f565b60006008600061084986610f40565b6001600160a01b03166001600160a01b03168152602001908152602001600020905060005b8154811015610967578482828154811061088a5761088a61274b565b9060005260206000209060070201600001541480156108df5750336001600160a01b03168282815481106108c0576108c061274b565b60009182526020909120600160079092020101546001600160a01b0316145b1561095557838282815481106108f7576108f761274b565b9060005260206000209060070201600401819055508282828154811061091f5761091f61274b565b6000918252602080832060056007909302019190910192909255338152600890915260409020825461095391908490612227565b505b8061095f81612777565b91505061086e565b506040805184815260208101849052339186917fd735ed62a5942caa22ea93a245e1012ffb3d87ef76bc6404931a044869d0ef95910160405180910390a350505050565b6109b3611977565b600a80546001600160a01b0319166001600160a01b0392909216919091179055565b6109dd6122d5565b6009546040516370a0823160e01b81523360048201526000916001600160a01b0316906370a0823190602401602060405180830381865afa158015610a26573d6000803e3d6000fd5b505050506040513d601f19601f82011682018060405250810190610a4a9190612792565b11610ab45760405162461bcd60e51b815260206004820152603460248201527f596f75206e65656420616e204861746368657220446576656c6f7065722042616044820152731919d9481d1bc81b5a5b9d081d1a1a5cc813919560621b606482015260840161073f565b66b1a2bc2ec50000341015610b025760405162461bcd60e51b8152602060048201526014602482015273125b9cdd59999a58da595b9d081c185e5b595b9d60621b604482015260640161073f565b6000610b0d3361102c565b9050600a8110610b725760405162461bcd60e51b815260206004820152602a60248201527f4578636565646564206d6178696d756d206e756d626572206f6620746f6b656e60448201526939903832b9103ab9b2b960b11b606482015260840161073f565b600b54610b808160016119d1565b600b55610b8d33826119dd565b610b99338287876119f7565b6040805187815260208101879052919450339183917f5a3e96f397e68b20a43c25f664b628805b877334dadfcc925c6c1a3ad4340458910160405180910390a3505092915050565b600060086000610bf084610f40565b6001600160a01b03166001600160a01b031681526020019081526020016000209050610c1a6122d5565b60005b8254811015610d395783838281548110610c3957610c3961274b565b9060005260206000209060070201600001541415610d2757828181548110610c6357610c6361274b565b60009182526020918290206040805160e08101825260079093029091018054835260018101546001600160a01b0316938301939093526002830154908201526003820154606082015260048201546080820152600582015460a082015260069091015460c08201528354909250839082908110610ce257610ce261274b565b6000918252602082206007909102018181556001810180546001600160a01b031916905560028101829055600381018290556004810182905560058101829055600601555b80610d3181612777565b915050610c1d565b506001600160a01b03851660009081526008602052604090208254610d6091908490612227565b506000610d6c8461162a565b90506000606460075483610d8091906127ab565b610d8a91906127ca565b9050610d9e6006546001600160a01b031690565b6001600160a01b03166108fc829081150290604051600060405180830381858888f19350505050158015610dd6573d6000803e3d6000fd5b50610de085610f40565b6001600160a01b03166108fc610df683856127ec565b6040518115909202916000818181858888f19350505050158015610e1e573d6000803e3d6000fd5b50610e2a878787611ad0565b6040805160e0810182528681526001600160a01b038881166020808401828152888601518587019081526000606087018181526080808d015190890190815260a0808e0151908a0190815260c08a01848152888552600888528b85208054600180820183559187529886208c516007909a0201988955965196880180546001600160a01b031916978b16979097179096559351600287015590516003860155516004850155905160058401559051600690920191909155935192939092918b169189917fa6a0ba324e6e451efbac233033ef783b3036dd37503d576bc8dacaf986e28da791a45050505050505050565b6107e083838360405180602001604052806000815250611516565b600061060b8261195a565b6000818152600260205260408120546001600160a01b03168061060b5760405162461bcd60e51b8152602060048201526018602482015277115490cdcc8c4e881a5b9d985b1a59081d1bdad95b88125160421b604482015260640161073f565b610fa8611977565b6064811115610ff95760405162461bcd60e51b815260206004820152601a60248201527f496e76616c696420726576656e75652073686172652072617465000000000000604482015260640161073f565b600781905560405181907fb7a567b370a11a6e4ead646475438e1d6f1259d862a5e7a95d539b5fa501999b90600090a250565b60006001600160a01b0382166110965760405162461bcd60e51b815260206004820152602960248201527f4552433732313a2061646472657373207a65726f206973206e6f7420612076616044820152683634b21037bbb732b960b91b606482015260840161073f565b506001600160a01b031660009081526003602052604090205490565b6110ba611977565b6110c46000611b01565b565b6001600160a01b0381166000908152600860209081526040808320805482518185028101850190935280835260609493849084015b828210156111765760008481526020908190206040805160e08101825260078602909201805483526001808201546001600160a01b0316848601526002820154928401929092526003810154606084015260048101546080840152600581015460a08401526006015460c083015290835290920191016110fb565b50505050905060005b81518110156111e1576111ae82828151811061119d5761119d61274b565b602002602001015160000151611548565b8282815181106111c0576111c061274b565b602090810291909101015160600152806111d981612777565b91505061117f565b5092915050565b6111f06122d5565b6111f98261195a565b61123c5760405162461bcd60e51b8152602060048201526014602482015273151bdad95b88191bd95cc81b9bdd08195e1a5cdd60621b604482015260640161073f565b60006008600061124b85610f40565b6001600160a01b03166001600160a01b03168152602001908152602001600020805480602002602001604051908101604052809291908181526020016000905b828210156113065760008481526020908190206040805160e08101825260078602909201805483526001808201546001600160a01b0316848601526002820154928401929092526003810154606084015260048101546080840152600581015460a08401526006015460c0830152908352909201910161128b565b50505050905060005b815181101561136c578382828151811061132b5761132b61274b565b602002602001015160000151141561135a5781818151811061134f5761134f61274b565b602002602001015192505b8061136481612777565b91505061130f565b5061137683611548565b606083015250919050565b600a546001600160a01b031633146113e65760405162461bcd60e51b815260206004820152602260248201527f6f6e6c7920736572766963652070617373706f72742063616e2063616c6c20696044820152613a1760f11b606482015260840161073f565b6000600860006113f585610f40565b6001600160a01b03166001600160a01b03168152602001908152602001600020905060005b81548110156114be57838282815481106114365761143661274b565b90600052602060002090600702016000015414156114ac57611484838383815481106114645761146461274b565b9060005260206000209060070201600601546119d190919063ffffffff16565b8282815481106114965761149661274b565b9060005260206000209060070201600601819055505b806114b681612777565b91505061141a565b5080600860006114cd86610f40565b6001600160a01b03168152602081019190915260400160002081546114f29290612227565b50505050565b60606001805461062090612710565b611512338383611b53565b5050565b6115203383611c22565b61153c5760405162461bcd60e51b815260040161073f90612803565b6114f284848484611c80565b600a546040516391f79bd360e01b8152600481018390526000916001600160a01b0316906391f79bd390602401602060405180830381865afa158015611592573d6000803e3d6000fd5b505050506040513d601f19601f8201168201806040525081019061060b9190612792565b60606115c18261189c565b60006115d860408051602081019091526000815290565b905060008151116115f85760405180602001604052806000815250611623565b8061160284611cb3565b604051602001611613929190612850565b6040516020818303038152906040525b9392505050565b6000611635826111e8565b60c0015192915050565b6001600160a01b03918216600090815260056020908152604080832093909416825291909152205460ff1690565b611675611977565b6001600160a01b0381166116da5760405162461bcd60e51b815260206004820152602660248201527f4f776e61626c653a206e6577206f776e657220697320746865207a65726f206160448201526564647265737360d01b606482015260840161073f565b6116e381611b01565b50565b6116ee611977565b6001600160a01b0382166117445760405162461bcd60e51b815260206004820152601b60248201527f205f746f2063616e6e6f74206265207a65726f20616464726573730000000000604482015260640161073f565b600b546117589066b1a2bc2ec500006127ab565b81106117bf5760405162461bcd60e51b815260206004820152603060248201527f205f616d6f756e742063616e6e6f74206265206c6172676572207468616e207460448201526f1bdd185b081b5a5b9d08185b5bdd5b9d60821b606482015260840161073f565b6000826001600160a01b03168260405160006040518083038185875af1925050503d806000811461180c576040519150601f19603f3d011682016040523d82523d6000602084013e611811565b606091505b50509050806118545760405162461bcd60e51b815260206004820152600f60248201526e1dda5d1a191c985dc819985a5b1959608a1b604482015260640161073f565b826001600160a01b03167f884edad9ce6fa2440d8a54cc123490eb96d2768479d49ff9c7366125a94243648360405161188f91815260200190565b60405180910390a2505050565b6118a58161195a565b6116e35760405162461bcd60e51b8152602060048201526018602482015277115490cdcc8c4e881a5b9d985b1a59081d1bdad95b88125160421b604482015260640161073f565b600081815260046020526040902080546001600160a01b0319166001600160a01b038416908117909155819061192182610f40565b6001600160a01b03167f8c5be1e5ebec7d5bd14f71427d1e84f3dd0314c0f7b2291e5b200ac8c7c3b92560405160405180910390a45050565b6000908152600260205260409020546001600160a01b0316151590565b6006546001600160a01b031633146110c45760405162461bcd60e51b815260206004820181905260248201527f4f776e61626c653a2063616c6c6572206973206e6f7420746865206f776e6572604482015260640161073f565b6000611623828461287f565b611512828260405180602001604052806000815250611d50565b6119ff6122d5565b6001600160a01b038581166000818152600860208181526040808420815160e0810183528b81528084018781524293820193845260608201878152608083018d815260a084018d815260c085018a8152865460018082018955888d528a8d208851600790930201918255955195810180546001600160a01b03191696909e1695909517909c5595516002840155905160038301555160048201559251600584015596516006909201919091559390925290528054909190611ac39083908190612227565b509150505b949350505050565b611ada3382611c22565b611af65760405162461bcd60e51b815260040161073f90612803565b6107e0838383611d83565b600680546001600160a01b038381166001600160a01b0319831681179093556040519116919082907f8be0079c531659141344cd1fd0a4f28419497f9722a3daafe3b4186f6b6457e090600090a35050565b816001600160a01b0316836001600160a01b03161415611bb55760405162461bcd60e51b815260206004820152601960248201527f4552433732313a20617070726f766520746f2063616c6c657200000000000000604482015260640161073f565b6001600160a01b03838116600081815260056020908152604080832094871680845294825291829020805460ff191686151590811790915591519182527f17307eab39ab6107e8899845ad3d59bd9653f200f220920489ca2b5937696c31910160405180910390a3505050565b600080611c2e83610f40565b9050806001600160a01b0316846001600160a01b03161480611c555750611c55818561163f565b80611ac85750836001600160a01b0316611c6e846106a3565b6001600160a01b031614949350505050565b611c8b848484611d83565b611c9784848484611ee7565b6114f25760405162461bcd60e51b815260040161073f90612897565b60606000611cc083611fe2565b600101905060008167ffffffffffffffff811115611ce057611ce06125ec565b6040519080825280601f01601f191660200182016040528015611d0a576020820181803683370190505b5090508181016020015b600019016f181899199a1a9b1b9c1cb0b131b232b360811b600a86061a8153600a8504945084611d4357611d48565b611d14565b509392505050565b611d5a83836120ba565b611d676000848484611ee7565b6107e05760405162461bcd60e51b815260040161073f90612897565b826001600160a01b0316611d9682610f40565b6001600160a01b031614611dbc5760405162461bcd60e51b815260040161073f906128e9565b6001600160a01b038216611e1e5760405162461bcd60e51b8152602060048201526024808201527f4552433732313a207472616e7366657220746f20746865207a65726f206164646044820152637265737360e01b606482015260840161073f565b826001600160a01b0316611e3182610f40565b6001600160a01b031614611e575760405162461bcd60e51b815260040161073f906128e9565b600081815260046020908152604080832080546001600160a01b03199081169091556001600160a01b0387811680865260038552838620805460001901905590871680865283862080546001019055868652600290945282852080549092168417909155905184937fddf252ad1be2c89b69c2b068fc378daa952ba7f163c4a11628f55a4df523b3ef91a4505050565b60006001600160a01b0384163b15611fda57604051630a85bd0160e11b81526001600160a01b0385169063150b7a0290611f2b90339089908890889060040161292e565b6020604051808303816000875af1925050508015611f66575060408051601f3d908101601f19168201909252611f639181019061296b565b60015b611fc0573d808015611f94576040519150601f19603f3d011682016040523d82523d6000602084013e611f99565b606091505b508051611fb85760405162461bcd60e51b815260040161073f90612897565b805181602001fd5b6001600160e01b031916630a85bd0160e11b149050611ac8565b506001611ac8565b60008072184f03e93ff9f4daa797ed6e38ed64bf6a1f0160401b83106120215772184f03e93ff9f4daa797ed6e38ed64bf6a1f0160401b830492506040015b6d04ee2d6d415b85acef8100000000831061204d576d04ee2d6d415b85acef8100000000830492506020015b662386f26fc10000831061206b57662386f26fc10000830492506010015b6305f5e1008310612083576305f5e100830492506008015b612710831061209757612710830492506004015b606483106120a9576064830492506002015b600a831061060b5760010192915050565b6001600160a01b0382166121105760405162461bcd60e51b815260206004820181905260248201527f4552433732313a206d696e7420746f20746865207a65726f2061646472657373604482015260640161073f565b6121198161195a565b156121665760405162461bcd60e51b815260206004820152601c60248201527f4552433732313a20746f6b656e20616c7265616479206d696e74656400000000604482015260640161073f565b61216f8161195a565b156121bc5760405162461bcd60e51b815260206004820152601c60248201527f4552433732313a20746f6b656e20616c7265616479206d696e74656400000000604482015260640161073f565b6001600160a01b038216600081815260036020908152604080832080546001019055848352600290915280822080546001600160a01b0319168417905551839291907fddf252ad1be2c89b69c2b068fc378daa952ba7f163c4a11628f55a4df523b3ef908290a45050565b8280548282559060005260206000209060070281019282156122c55760005260206000209160070282015b828111156122c5578254825560018084015490830180546001600160a01b0319166001600160a01b03909216919091179055600280840154908301556003808401549083015560048084015490830155600580840154908301556006808401549083015560079283019290910190612252565b506122d192915061231b565b5090565b6040518060e001604052806000815260200160006001600160a01b0316815260200160008152602001600081526020016000815260200160008152602001600081525090565b5b808211156122d15760008082556001820180546001600160a01b031916905560028201819055600382018190556004820181905560058201819055600682015560070161231c565b6001600160e01b0319811681146116e357600080fd5b60006020828403121561238c57600080fd5b813561162381612364565b60005b838110156123b257818101518382015260200161239a565b838111156114f25750506000910152565b600081518084526123db816020860160208601612397565b601f01601f19169290920160200192915050565b60208152600061162360208301846123c3565b60006020828403121561241457600080fd5b5035919050565b6001600160a01b03811681146116e357600080fd5b6000806040838503121561244357600080fd5b823561244e8161241b565b946020939093013593505050565b60008060006060848603121561247157600080fd5b505081359360208301359350604090920135919050565b60006020828403121561249a57600080fd5b81356116238161241b565b600080604083850312156124b857600080fd5b50508035926020909101359150565b805182526020808201516001600160a01b03169083015260408082015190830152606080820151908301526080808201519083015260a0808201519083015260c090810151910152565b60e0810161060b82846124c7565b60008060006060848603121561253457600080fd5b833561253f8161241b565b9250602084013561254f8161241b565b929592945050506040919091013590565b6020808252825182820181905260009190848201906040850190845b818110156125a25761258f8385516124c7565b9284019260e0929092019160010161257c565b50909695505050505050565b600080604083850312156125c157600080fd5b82356125cc8161241b565b9150602083013580151581146125e157600080fd5b809150509250929050565b634e487b7160e01b600052604160045260246000fd5b6000806000806080858703121561261857600080fd5b84356126238161241b565b935060208501356126338161241b565b925060408501359150606085013567ffffffffffffffff8082111561265757600080fd5b818701915087601f83011261266b57600080fd5b81358181111561267d5761267d6125ec565b604051601f8201601f19908116603f011681019083821181831017156126a5576126a56125ec565b816040528281528a60208487010111156126be57600080fd5b82602086016020830137600060208483010152809550505050505092959194509250565b600080604083850312156126f557600080fd5b82356127008161241b565b915060208301356125e18161241b565b600181811c9082168061272457607f821691505b6020821081141561274557634e487b7160e01b600052602260045260246000fd5b50919050565b634e487b7160e01b600052603260045260246000fd5b634e487b7160e01b600052601160045260246000fd5b600060001982141561278b5761278b612761565b5060010190565b6000602082840312156127a457600080fd5b5051919050565b60008160001904831182151516156127c5576127c5612761565b500290565b6000826127e757634e487b7160e01b600052601260045260246000fd5b500490565b6000828210156127fe576127fe612761565b500390565b6020808252602d908201527f4552433732313a2063616c6c6572206973206e6f7420746f6b656e206f776e6560408201526c1c881bdc88185c1c1c9bdd9959609a1b606082015260800190565b60008351612862818460208801612397565b835190830190612876818360208801612397565b01949350505050565b6000821982111561289257612892612761565b500190565b60208082526032908201527f4552433732313a207472616e7366657220746f206e6f6e20455243373231526560408201527131b2b4bb32b91034b6b83632b6b2b73a32b960711b606082015260800190565b60208082526025908201527f4552433732313a207472616e736665722066726f6d20696e636f72726563742060408201526437bbb732b960d91b606082015260800190565b6001600160a01b0385811682528416602082015260408101839052608060608201819052600090612961908301846123c3565b9695505050505050565b60006020828403121561297d57600080fd5b81516116238161236456fea26469706673582212206c9ab8593d9d87c7b66bfe9d7c93ad9fa0eec3db4609dc70c2c83ad1b34f872f64736f6c634300080c0033",
  "devdoc": {
    "author": "Rocklabs",
    "kind": "dev",
    "methods": {
      "approve(address,uint256)": {
        "details": "See {IERC721-approve}."
      },
      "balanceOf(address)": {
        "details": "See {IERC721-balanceOf}."
      },
      "getApproved(uint256)": {
        "details": "See {IERC721-getApproved}."
      },
      "init(address)": {
        "params": {
          "hatcherServicePassport": "contract address"
        }
      },
      "isApprovedForAll(address,address)": {
        "details": "See {IERC721-isApprovedForAll}."
      },
      "mint(uint256,uint256)": {
        "details": "service provider create a new service",
        "params": {
          "fee": "the amount of payment for the service set by the service provider",
          "maxUserLimit": "maximum number of users using this service set by the service provider"
        },
        "returns": {
          "service": " the new service info"
        }
      },
      "name()": {
        "details": "See {IERC721Metadata-name}."
      },
      "owner()": {
        "details": "Returns the address of the current owner."
      },
      "ownerOf(uint256)": {
        "details": "See {IERC721-ownerOf}."
      },
      "renounceOwnership()": {
        "details": "Leaves the contract without owner. It will not be possible to call `onlyOwner` functions anymore. Can only be called by the current owner. NOTE: Renouncing ownership will leave the contract without an owner, thereby removing any functionality that is only available to the owner."
      },
      "safeTransferFrom(address,address,uint256)": {
        "details": "See {IERC721-safeTransferFrom}."
      },
      "safeTransferFrom(address,address,uint256,bytes)": {
        "details": "See {IERC721-safeTransferFrom}."
      },
      "setApprovalForAll(address,bool)": {
        "details": "See {IERC721-setApprovalForAll}."
      },
      "supportsInterface(bytes4)": {
        "details": "See {IERC165-supportsInterface}."
      },
      "symbol()": {
        "details": "See {IERC721Metadata-symbol}."
      },
      "tokenURI(uint256)": {
        "details": "See {IERC721Metadata-tokenURI}."
      },
      "transferOwnership(address)": {
        "details": "Transfers ownership of the contract to a new account (`newOwner`). Can only be called by the current owner."
      }
    },
    "title": "hatcher service",
    "version": 1
  },
  "userdoc": {
    "kind": "user",
    "methods": {
      "addServiceRevenue(uint256,uint256)": {
        "notice": "*** only passport contract call it **"
      },
      "getServiceUserCount(uint256)": {
        "notice": "public functions "
      },
      "init(address)": {
        "notice": "call this first to set service password contract address"
      },
      "mint(uint256,uint256)": {
        "notice": "only badge nft owner could call this method"
      },
      "transferFrom(address,address,uint256)": {
        "notice": "************* badge owner call *********"
      }
    },
    "notice": "service provider create their service that will be used for users",
    "version": 1
  },
  "storageLayout": {
    "storage": [
      {
        "astId": 216,
        "contract": "contracts/HatcherServiceCertificate.sol:HatcherServiceCertificate",
        "label": "_name",
        "offset": 0,
        "slot": "0",
        "type": "t_string_storage"
      },
      {
        "astId": 218,
        "contract": "contracts/HatcherServiceCertificate.sol:HatcherServiceCertificate",
        "label": "_symbol",
        "offset": 0,
        "slot": "1",
        "type": "t_string_storage"
      },
      {
        "astId": 222,
        "contract": "contracts/HatcherServiceCertificate.sol:HatcherServiceCertificate",
        "label": "_owners",
        "offset": 0,
        "slot": "2",
        "type": "t_mapping(t_uint256,t_address)"
      },
      {
        "astId": 226,
        "contract": "contracts/HatcherServiceCertificate.sol:HatcherServiceCertificate",
        "label": "_balances",
        "offset": 0,
        "slot": "3",
        "type": "t_mapping(t_address,t_uint256)"
      },
      {
        "astId": 230,
        "contract": "contracts/HatcherServiceCertificate.sol:HatcherServiceCertificate",
        "label": "_tokenApprovals",
        "offset": 0,
        "slot": "4",
        "type": "t_mapping(t_uint256,t_address)"
      },
      {
        "astId": 236,
        "contract": "contracts/HatcherServiceCertificate.sol:HatcherServiceCertificate",
        "label": "_operatorApprovals",
        "offset": 0,
        "slot": "5",
        "type": "t_mapping(t_address,t_mapping(t_address,t_bool))"
      },
      {
        "astId": 7,
        "contract": "contracts/HatcherServiceCertificate.sol:HatcherServiceCertificate",
        "label": "_owner",
        "offset": 0,
        "slot": "6",
        "type": "t_address"
      },
      {
        "astId": 3184,
        "contract": "contracts/HatcherServiceCertificate.sol:HatcherServiceCertificate",
        "label": "_revenueShareRate",
        "offset": 0,
        "slot": "7",
        "type": "t_uint256"
      },
      {
        "astId": 3205,
        "contract": "contracts/HatcherServiceCertificate.sol:HatcherServiceCertificate",
        "label": "_servicesData",
        "offset": 0,
        "slot": "8",
        "type": "t_mapping(t_address,t_array(t_struct(Service)3199_storage)dyn_storage)"
      },
      {
        "astId": 3208,
        "contract": "contracts/HatcherServiceCertificate.sol:HatcherServiceCertificate",
        "label": "_hatcherDeveloperBadge",
        "offset": 0,
        "slot": "9",
        "type": "t_contract(HatcherDeveloperBadge)3158"
      },
      {
        "astId": 3211,
        "contract": "contracts/HatcherServiceCertificate.sol:HatcherServiceCertificate",
        "label": "_hatcherServicePassport",
        "offset": 0,
        "slot": "10",
        "type": "t_contract(HatcherServicePassport)4510"
      },
      {
        "astId": 3213,
        "contract": "contracts/HatcherServiceCertificate.sol:HatcherServiceCertificate",
        "label": "_totalSupply",
        "offset": 0,
        "slot": "11",
        "type": "t_uint256"
      }
    ],
    "types": {
      "t_address": {
        "encoding": "inplace",
        "label": "address",
        "numberOfBytes": "20"
      },
      "t_array(t_struct(Service)3199_storage)dyn_storage": {
        "base": "t_struct(Service)3199_storage",
        "encoding": "dynamic_array",
        "label": "struct HatcherServiceCertificate.Service[]",
        "numberOfBytes": "32"
      },
      "t_bool": {
        "encoding": "inplace",
        "label": "bool",
        "numberOfBytes": "1"
      },
      "t_contract(HatcherDeveloperBadge)3158": {
        "encoding": "inplace",
        "label": "contract HatcherDeveloperBadge",
        "numberOfBytes": "20"
      },
      "t_contract(HatcherServicePassport)4510": {
        "encoding": "inplace",
        "label": "contract HatcherServicePassport",
        "numberOfBytes": "20"
      },
      "t_mapping(t_address,t_array(t_struct(Service)3199_storage)dyn_storage)": {
        "encoding": "mapping",
        "key": "t_address",
        "label": "mapping(address => struct HatcherServiceCertificate.Service[])",
        "numberOfBytes": "32",
        "value": "t_array(t_struct(Service)3199_storage)dyn_storage"
      },
      "t_mapping(t_address,t_bool)": {
        "encoding": "mapping",
        "key": "t_address",
        "label": "mapping(address => bool)",
        "numberOfBytes": "32",
        "value": "t_bool"
      },
      "t_mapping(t_address,t_mapping(t_address,t_bool))": {
        "encoding": "mapping",
        "key": "t_address",
        "label": "mapping(address => mapping(address => bool))",
        "numberOfBytes": "32",
        "value": "t_mapping(t_address,t_bool)"
      },
      "t_mapping(t_address,t_uint256)": {
        "encoding": "mapping",
        "key": "t_address",
        "label": "mapping(address => uint256)",
        "numberOfBytes": "32",
        "value": "t_uint256"
      },
      "t_mapping(t_uint256,t_address)": {
        "encoding": "mapping",
        "key": "t_uint256",
        "label": "mapping(uint256 => address)",
        "numberOfBytes": "32",
        "value": "t_address"
      },
      "t_string_storage": {
        "encoding": "bytes",
        "label": "string",
        "numberOfBytes": "32"
      },
      "t_struct(Service)3199_storage": {
        "encoding": "inplace",
        "label": "struct HatcherServiceCertificate.Service",
        "members": [
          {
            "astId": 3186,
            "contract": "contracts/HatcherServiceCertificate.sol:HatcherServiceCertificate",
            "label": "serviceId",
            "offset": 0,
            "slot": "0",
            "type": "t_uint256"
          },
          {
            "astId": 3188,
            "contract": "contracts/HatcherServiceCertificate.sol:HatcherServiceCertificate",
            "label": "owner",
            "offset": 0,
            "slot": "1",
            "type": "t_address"
          },
          {
            "astId": 3190,
            "contract": "contracts/HatcherServiceCertificate.sol:HatcherServiceCertificate",
            "label": "createdTime",
            "offset": 0,
            "slot": "2",
            "type": "t_uint256"
          },
          {
            "astId": 3192,
            "contract": "contracts/HatcherServiceCertificate.sol:HatcherServiceCertificate",
            "label": "userCount",
            "offset": 0,
            "slot": "3",
            "type": "t_uint256"
          },
          {
            "astId": 3194,
            "contract": "contracts/HatcherServiceCertificate.sol:HatcherServiceCertificate",
            "label": "maxUserLimit",
            "offset": 0,
            "slot": "4",
            "type": "t_uint256"
          },
          {
            "astId": 3196,
            "contract": "contracts/HatcherServiceCertificate.sol:HatcherServiceCertificate",
            "label": "fee",
            "offset": 0,
            "slot": "5",
            "type": "t_uint256"
          },
          {
            "astId": 3198,
            "contract": "contracts/HatcherServiceCertificate.sol:HatcherServiceCertificate",
            "label": "revenue",
            "offset": 0,
            "slot": "6",
            "type": "t_uint256"
          }
        ],
        "numberOfBytes": "224"
      },
      "t_uint256": {
        "encoding": "inplace",
        "label": "uint256",
        "numberOfBytes": "32"
      }
    }
  }
}