{
  "address": "0x23BF360dc2A140533925f5Fcb77043Fd6f3B57F9",
  "abi": [
    {
      "inputs": [
        {
          "internalType": "address",
          "name": "hatcherDeveloperBadge",
          "type": "address"
        },
        {
          "internalType": "uint256",
          "name": "revenueShareRate",
          "type": "uint256"
        }
      ],
      "stateMutability": "nonpayable",
      "type": "constructor"
    },
    {
      "anonymous": false,
      "inputs": [
        {
          "indexed": true,
          "internalType": "address",
          "name": "owner",
          "type": "address"
        },
        {
          "indexed": true,
          "internalType": "address",
          "name": "approved",
          "type": "address"
        },
        {
          "indexed": true,
          "internalType": "uint256",
          "name": "tokenId",
          "type": "uint256"
        }
      ],
      "name": "Approval",
      "type": "event"
    },
    {
      "anonymous": false,
      "inputs": [
        {
          "indexed": true,
          "internalType": "address",
          "name": "owner",
          "type": "address"
        },
        {
          "indexed": true,
          "internalType": "address",
          "name": "operator",
          "type": "address"
        },
        {
          "indexed": false,
          "internalType": "bool",
          "name": "approved",
          "type": "bool"
        }
      ],
      "name": "ApprovalForAll",
      "type": "event"
    },
    {
      "anonymous": false,
      "inputs": [
        {
          "indexed": true,
          "internalType": "address",
          "name": "previousOwner",
          "type": "address"
        },
        {
          "indexed": true,
          "internalType": "address",
          "name": "newOwner",
          "type": "address"
        }
      ],
      "name": "OwnershipTransferred",
      "type": "event"
    },
    {
      "anonymous": false,
      "inputs": [
        {
          "indexed": true,
          "internalType": "address",
          "name": "from",
          "type": "address"
        },
        {
          "indexed": true,
          "internalType": "address",
          "name": "to",
          "type": "address"
        },
        {
          "indexed": true,
          "internalType": "uint256",
          "name": "tokenId",
          "type": "uint256"
        }
      ],
      "name": "Transfer",
      "type": "event"
    },
    {
      "inputs": [],
      "name": "MAX_SERVICES_PER_USER",
      "outputs": [
        {
          "internalType": "uint256",
          "name": "",
          "type": "uint256"
        }
      ],
      "stateMutability": "view",
      "type": "function"
    },
    {
      "inputs": [],
      "name": "MINT_PRICE",
      "outputs": [
        {
          "internalType": "uint256",
          "name": "",
          "type": "uint256"
        }
      ],
      "stateMutability": "view",
      "type": "function"
    },
    {
      "inputs": [
        {
          "internalType": "uint256",
          "name": "serviceId",
          "type": "uint256"
        },
        {
          "internalType": "uint256",
          "name": "amount",
          "type": "uint256"
        }
      ],
      "name": "addServiceRevenue",
      "outputs": [],
      "stateMutability": "payable",
      "type": "function"
    },
    {
      "inputs": [
        {
          "internalType": "address",
          "name": "to",
          "type": "address"
        },
        {
          "internalType": "uint256",
          "name": "tokenId",
          "type": "uint256"
        }
      ],
      "name": "approve",
      "outputs": [],
      "stateMutability": "nonpayable",
      "type": "function"
    },
    {
      "inputs": [
        {
          "internalType": "address",
          "name": "owner",
          "type": "address"
        }
      ],
      "name": "balanceOf",
      "outputs": [
        {
          "internalType": "uint256",
          "name": "",
          "type": "uint256"
        }
      ],
      "stateMutability": "view",
      "type": "function"
    },
    {
      "inputs": [
        {
          "internalType": "uint256",
          "name": "serviceId",
          "type": "uint256"
        }
      ],
      "name": "exists",
      "outputs": [
        {
          "internalType": "bool",
          "name": "",
          "type": "bool"
        }
      ],
      "stateMutability": "view",
      "type": "function"
    },
    {
      "inputs": [
        {
          "internalType": "uint256",
          "name": "tokenId",
          "type": "uint256"
        }
      ],
      "name": "getApproved",
      "outputs": [
        {
          "internalType": "address",
          "name": "",
          "type": "address"
        }
      ],
      "stateMutability": "view",
      "type": "function"
    },
    {
      "inputs": [
        {
          "internalType": "address",
          "name": "owner",
          "type": "address"
        }
      ],
      "name": "getOwnerServices",
      "outputs": [
        {
          "components": [
            {
              "internalType": "uint256",
              "name": "serviceId",
              "type": "uint256"
            },
            {
              "internalType": "address",
              "name": "owner",
              "type": "address"
            },
            {
              "internalType": "uint256",
              "name": "createdTime",
              "type": "uint256"
            },
            {
              "internalType": "uint256",
              "name": "userCount",
              "type": "uint256"
            },
            {
              "internalType": "uint256",
              "name": "maxUserLimit",
              "type": "uint256"
            },
            {
              "internalType": "uint256",
              "name": "fee",
              "type": "uint256"
            },
            {
              "internalType": "uint256",
              "name": "revenue",
              "type": "uint256"
            }
          ],
          "internalType": "struct HatcherServiceCertificate.Service[]",
          "name": "",
          "type": "tuple[]"
        }
      ],
      "stateMutability": "view",
      "type": "function"
    },
    {
      "inputs": [
        {
          "internalType": "address",
          "name": "owner",
          "type": "address"
        }
      ],
      "name": "getServiceCount",
      "outputs": [
        {
          "internalType": "uint256",
          "name": "",
          "type": "uint256"
        }
      ],
      "stateMutability": "view",
      "type": "function"
    },
    {
      "inputs": [
        {
          "internalType": "uint256",
          "name": "serviceId",
          "type": "uint256"
        }
      ],
      "name": "getServiceInfo",
      "outputs": [
        {
          "components": [
            {
              "internalType": "uint256",
              "name": "serviceId",
              "type": "uint256"
            },
            {
              "internalType": "address",
              "name": "owner",
              "type": "address"
            },
            {
              "internalType": "uint256",
              "name": "createdTime",
              "type": "uint256"
            },
            {
              "internalType": "uint256",
              "name": "userCount",
              "type": "uint256"
            },
            {
              "internalType": "uint256",
              "name": "maxUserLimit",
              "type": "uint256"
            },
            {
              "internalType": "uint256",
              "name": "fee",
              "type": "uint256"
            },
            {
              "internalType": "uint256",
              "name": "revenue",
              "type": "uint256"
            }
          ],
          "internalType": "struct HatcherServiceCertificate.Service",
          "name": "ret",
          "type": "tuple"
        }
      ],
      "stateMutability": "view",
      "type": "function"
    },
    {
      "inputs": [
        {
          "internalType": "uint256",
          "name": "serviceId",
          "type": "uint256"
        }
      ],
      "name": "getServiceRevenue",
      "outputs": [
        {
          "internalType": "uint256",
          "name": "",
          "type": "uint256"
        }
      ],
      "stateMutability": "view",
      "type": "function"
    },
    {
      "inputs": [
        {
          "internalType": "uint256",
          "name": "serviceId",
          "type": "uint256"
        }
      ],
      "name": "getServiceUserCount",
      "outputs": [
        {
          "internalType": "uint256",
          "name": "",
          "type": "uint256"
        }
      ],
      "stateMutability": "view",
      "type": "function"
    },
    {
      "inputs": [
        {
          "internalType": "address",
          "name": "hatcherServicePassport",
          "type": "address"
        }
      ],
      "name": "init",
      "outputs": [],
      "stateMutability": "nonpayable",
      "type": "function"
    },
    {
      "inputs": [
        {
          "internalType": "address",
          "name": "owner",
          "type": "address"
        },
        {
          "internalType": "address",
          "name": "operator",
          "type": "address"
        }
      ],
      "name": "isApprovedForAll",
      "outputs": [
        {
          "internalType": "bool",
          "name": "",
          "type": "bool"
        }
      ],
      "stateMutability": "view",
      "type": "function"
    },
    {
      "inputs": [
        {
          "internalType": "uint256",
          "name": "maxUserLimit",
          "type": "uint256"
        },
        {
          "internalType": "uint256",
          "name": "fee",
          "type": "uint256"
        }
      ],
      "name": "mint",
      "outputs": [
        {
          "components": [
            {
              "internalType": "uint256",
              "name": "serviceId",
              "type": "uint256"
            },
            {
              "internalType": "address",
              "name": "owner",
              "type": "address"
            },
            {
              "internalType": "uint256",
              "name": "createdTime",
              "type": "uint256"
            },
            {
              "internalType": "uint256",
              "name": "userCount",
              "type": "uint256"
            },
            {
              "internalType": "uint256",
              "name": "maxUserLimit",
              "type": "uint256"
            },
            {
              "internalType": "uint256",
              "name": "fee",
              "type": "uint256"
            },
            {
              "internalType": "uint256",
              "name": "revenue",
              "type": "uint256"
            }
          ],
          "internalType": "struct HatcherServiceCertificate.Service",
          "name": "service",
          "type": "tuple"
        }
      ],
      "stateMutability": "payable",
      "type": "function"
    },
    {
      "inputs": [],
      "name": "name",
      "outputs": [
        {
          "internalType": "string",
          "name": "",
          "type": "string"
        }
      ],
      "stateMutability": "view",
      "type": "function"
    },
    {
      "inputs": [],
      "name": "owner",
      "outputs": [
        {
          "internalType": "address",
          "name": "",
          "type": "address"
        }
      ],
      "stateMutability": "view",
      "type": "function"
    },
    {
      "inputs": [
        {
          "internalType": "uint256",
          "name": "tokenId",
          "type": "uint256"
        }
      ],
      "name": "ownerOf",
      "outputs": [
        {
          "internalType": "address",
          "name": "",
          "type": "address"
        }
      ],
      "stateMutability": "view",
      "type": "function"
    },
    {
      "inputs": [],
      "name": "renounceOwnership",
      "outputs": [],
      "stateMutability": "nonpayable",
      "type": "function"
    },
    {
      "inputs": [
        {
          "internalType": "address",
          "name": "from",
          "type": "address"
        },
        {
          "internalType": "address",
          "name": "to",
          "type": "address"
        },
        {
          "internalType": "uint256",
          "name": "tokenId",
          "type": "uint256"
        }
      ],
      "name": "safeTransferFrom",
      "outputs": [],
      "stateMutability": "nonpayable",
      "type": "function"
    },
    {
      "inputs": [
        {
          "internalType": "address",
          "name": "from",
          "type": "address"
        },
        {
          "internalType": "address",
          "name": "to",
          "type": "address"
        },
        {
          "internalType": "uint256",
          "name": "tokenId",
          "type": "uint256"
        },
        {
          "internalType": "bytes",
          "name": "data",
          "type": "bytes"
        }
      ],
      "name": "safeTransferFrom",
      "outputs": [],
      "stateMutability": "nonpayable",
      "type": "function"
    },
    {
      "inputs": [
        {
          "internalType": "address",
          "name": "operator",
          "type": "address"
        },
        {
          "internalType": "bool",
          "name": "approved",
          "type": "bool"
        }
      ],
      "name": "setApprovalForAll",
      "outputs": [],
      "stateMutability": "nonpayable",
      "type": "function"
    },
    {
      "inputs": [
        {
          "internalType": "uint256",
          "name": "revenueShareRate",
          "type": "uint256"
        }
      ],
      "name": "setRevenueShare",
      "outputs": [],
      "stateMutability": "nonpayable",
      "type": "function"
    },
    {
      "inputs": [
        {
          "internalType": "uint256",
          "name": "serviceId",
          "type": "uint256"
        },
        {
          "internalType": "uint256",
          "name": "maxUserLimit",
          "type": "uint256"
        },
        {
          "internalType": "uint256",
          "name": "fee",
          "type": "uint256"
        }
      ],
      "name": "setServiceParams",
      "outputs": [],
      "stateMutability": "nonpayable",
      "type": "function"
    },
    {
      "inputs": [
        {
          "internalType": "bytes4",
          "name": "interfaceId",
          "type": "bytes4"
        }
      ],
      "name": "supportsInterface",
      "outputs": [
        {
          "internalType": "bool",
          "name": "",
          "type": "bool"
        }
      ],
      "stateMutability": "view",
      "type": "function"
    },
    {
      "inputs": [],
      "name": "symbol",
      "outputs": [
        {
          "internalType": "string",
          "name": "",
          "type": "string"
        }
      ],
      "stateMutability": "view",
      "type": "function"
    },
    {
      "inputs": [
        {
          "internalType": "uint256",
          "name": "tokenId",
          "type": "uint256"
        }
      ],
      "name": "tokenURI",
      "outputs": [
        {
          "internalType": "string",
          "name": "",
          "type": "string"
        }
      ],
      "stateMutability": "view",
      "type": "function"
    },
    {
      "inputs": [
        {
          "internalType": "address",
          "name": "from",
          "type": "address"
        },
        {
          "internalType": "address",
          "name": "to",
          "type": "address"
        },
        {
          "internalType": "uint256",
          "name": "serviceId",
          "type": "uint256"
        }
      ],
      "name": "transferFrom",
      "outputs": [],
      "stateMutability": "nonpayable",
      "type": "function"
    },
    {
      "inputs": [
        {
          "internalType": "address",
          "name": "newOwner",
          "type": "address"
        }
      ],
      "name": "transferOwnership",
      "outputs": [],
      "stateMutability": "nonpayable",
      "type": "function"
    },
    {
      "inputs": [
        {
          "internalType": "address payable",
          "name": "_to",
          "type": "address"
        },
        {
          "internalType": "uint256",
          "name": "_amount",
          "type": "uint256"
        }
      ],
      "name": "withdraw",
      "outputs": [],
      "stateMutability": "nonpayable",
      "type": "function"
    }
  ],
  "transactionHash": "0x3c9c0efc8e2acde91d0fa8a7db9b7aa07ab59d7b16857cd8723992e6f9ff401a",
  "args": [
    "0x5162CAE981B56721E95E0cC360Bca81Ea1c0FC37",
    20
  ],
  "numDeployments": 1,
  "solcInputHash": "8db5a3a6466d775b7c7d191e2018e84f",
  "bytecode": "0x60806040523480156200001157600080fd5b5060405162002a9338038062002a938339810160408190526200003491620001ed565b604080518082018252601b81527f486174636865722053657276696365204365727469666963617465000000000060208083019182528351808501909452600384526248534360e81b908401528151919291620000949160009162000147565b508051620000aa90600190602084019062000147565b505050620000c7620000c1620000f160201b60201c565b620000f5565b600980546001600160a01b0319166001600160a01b03939093169290921790915560075562000266565b3390565b600680546001600160a01b038381166001600160a01b0319831681179093556040519116919082907f8be0079c531659141344cd1fd0a4f28419497f9722a3daafe3b4186f6b6457e090600090a35050565b828054620001559062000229565b90600052602060002090601f016020900481019282620001795760008555620001c4565b82601f106200019457805160ff1916838001178555620001c4565b82800160010185558215620001c4579182015b82811115620001c4578251825591602001919060010190620001a7565b50620001d2929150620001d6565b5090565b5b80821115620001d25760008155600101620001d7565b600080604083850312156200020157600080fd5b82516001600160a01b03811681146200021957600080fd5b6020939093015192949293505050565b600181811c908216806200023e57607f821691505b602082108114156200026057634e487b7160e01b600052602260045260246000fd5b50919050565b61281d80620002766000396000f3fe6080604052600436106101cd5760003560e01c8063794dc9fe116100f7578063ba16b07411610095578063daac908711610064578063daac90871461054a578063e985e9c51461055f578063f2fde38b1461057f578063f3fef3a31461059f57600080fd5b8063ba16b074146104cf578063c002d23d146104ef578063c87b56dd1461050a578063d9f16af61461052a57600080fd5b80638da5cb5b116100d15780638da5cb5b1461045c57806395d89b411461047a578063a22cb4651461048f578063b88d4fde146104af57600080fd5b8063794dc9fe146103fc57806382a8ea581461042957806388dec5ce1461044957600080fd5b806323b872dd1161016f5780636e669d7a1161013e5780636e669d7a1461036357806370a0823114610383578063715018a6146103b157806378f32cd7146103c657600080fd5b806323b872dd146102e357806342842e0e146103035780634f558e79146103235780636352211e1461034357600080fd5b8063090fb634116101ab578063090fb63414610261578063095ea7b31461028357806319ab453c146102a35780631b2ef1ca146102c357600080fd5b806301ffc9a7146101d257806306fdde0314610207578063081812fc14610229575b600080fd5b3480156101de57600080fd5b506101f26101ed3660046121d9565b6105bf565b60405190151581526020015b60405180910390f35b34801561021357600080fd5b5061021c610611565b6040516101fe919061224e565b34801561023557600080fd5b50610249610244366004612261565b6106a3565b6040516001600160a01b0390911681526020016101fe565b34801561026d57600080fd5b5061028161027c36600461227a565b6106ca565b005b34801561028f57600080fd5b5061028161029e3660046122bb565b610858565b3480156102af57600080fd5b506102816102be3660046122e7565b61096e565b6102d66102d1366004612304565b610998565b6040516101fe9190612370565b3480156102ef57600080fd5b506102816102fe36600461237e565b610b65565b34801561030f57600080fd5b5061028161031e36600461237e565b610e6a565b34801561032f57600080fd5b506101f261033e366004612261565b610e85565b34801561034f57600080fd5b5061024961035e366004612261565b610e90565b34801561036f57600080fd5b5061028161037e366004612261565b610ef0565b34801561038f57600080fd5b506103a361039e3660046122e7565b610f4e565b6040519081526020016101fe565b3480156103bd57600080fd5b50610281610fd4565b3480156103d257600080fd5b506103a36103e13660046122e7565b6001600160a01b031660009081526008602052604090205490565b34801561040857600080fd5b5061041c6104173660046122e7565b610fe8565b6040516101fe91906123bf565b34801561043557600080fd5b506102d6610444366004612261565b61110a565b610281610457366004612304565b6112a3565b34801561046857600080fd5b506006546001600160a01b0316610249565b34801561048657600080fd5b5061021c61141a565b34801561049b57600080fd5b506102816104aa36600461240d565b611429565b3480156104bb57600080fd5b506102816104ca366004612461565b611438565b3480156104db57600080fd5b506103a36104ea366004612261565b61146a565b3480156104fb57600080fd5b506103a366b1a2bc2ec5000081565b34801561051657600080fd5b5061021c610525366004612261565b6114d8565b34801561053657600080fd5b506103a3610545366004612261565b61154c565b34801561055657600080fd5b506103a3600a81565b34801561056b57600080fd5b506101f261057a366004612541565b611561565b34801561058b57600080fd5b5061028161059a3660046122e7565b61158f565b3480156105ab57600080fd5b506102816105ba3660046122bb565b611608565b60006001600160e01b031982166380ac58cd60e01b14806105f057506001600160e01b03198216635b5e139f60e01b145b8061060b57506301ffc9a760e01b6001600160e01b03198316145b92915050565b6060600080546106209061256f565b80601f016020809104026020016040519081016040528092919081815260200182805461064c9061256f565b80156106995780601f1061066e57610100808354040283529160200191610699565b820191906000526020600020905b81548152906001019060200180831161067c57829003601f168201915b5050505050905090565b60006106ae826116fb565b506000908152600460205260409020546001600160a01b031690565b6106d38361174b565b6107245760405162461bcd60e51b815260206004820152601860248201527f73657276696365496420646f6573206e6f74206578697374000000000000000060448201526064015b60405180910390fd5b60006008600061073386610e90565b6001600160a01b03166001600160a01b03168152602001908152602001600020905060005b81548110156108515784828281548110610774576107746125aa565b9060005260206000209060070201600001541480156107c95750336001600160a01b03168282815481106107aa576107aa6125aa565b60009182526020909120600160079092020101546001600160a01b0316145b1561083f57838282815481106107e1576107e16125aa565b90600052602060002090600702016004018190555082828281548110610809576108096125aa565b6000918252602080832060056007909302019190910192909255338152600890915260409020825461083d91908490612086565b505b80610849816125d6565b915050610758565b5050505050565b600061086382610e90565b9050806001600160a01b0316836001600160a01b031614156108d15760405162461bcd60e51b815260206004820152602160248201527f4552433732313a20617070726f76616c20746f2063757272656e74206f776e656044820152603960f91b606482015260840161071b565b336001600160a01b03821614806108ed57506108ed8133611561565b61095f5760405162461bcd60e51b815260206004820152603d60248201527f4552433732313a20617070726f76652063616c6c6572206973206e6f7420746f60448201527f6b656e206f776e6572206f7220617070726f76656420666f7220616c6c000000606482015260840161071b565b6109698383611768565b505050565b6109766117d6565b600a80546001600160a01b0319166001600160a01b0392909216919091179055565b6109a0612134565b6009546040516370a0823160e01b81523360048201526000916001600160a01b0316906370a0823190602401602060405180830381865afa1580156109e9573d6000803e3d6000fd5b505050506040513d601f19601f82011682018060405250810190610a0d91906125f1565b11610a775760405162461bcd60e51b815260206004820152603460248201527f596f75206e65656420616e204861746368657220446576656c6f7065722042616044820152731919d9481d1bc81b5a5b9d081d1a1a5cc813919560621b606482015260840161071b565b66b1a2bc2ec50000341015610ac55760405162461bcd60e51b8152602060048201526014602482015273125b9cdd59999a58da595b9d081c185e5b595b9d60621b604482015260640161071b565b6000610ad033610f4e565b9050600a8110610b355760405162461bcd60e51b815260206004820152602a60248201527f4578636565646564206d6178696d756d206e756d626572206f6620746f6b656e60448201526939903832b9103ab9b2b960b11b606482015260840161071b565b600b54610b43816001611830565b600b55610b50338261183c565b610b5c33828787611856565b95945050505050565b600060086000610b7484610e90565b6001600160a01b03166001600160a01b031681526020019081526020016000209050610b9e612134565b60005b8254811015610cbd5783838281548110610bbd57610bbd6125aa565b9060005260206000209060070201600001541415610cab57828181548110610be757610be76125aa565b60009182526020918290206040805160e08101825260079093029091018054835260018101546001600160a01b0316938301939093526002830154908201526003820154606082015260048201546080820152600582015460a082015260069091015460c08201528354909250839082908110610c6657610c666125aa565b6000918252602082206007909102018181556001810180546001600160a01b031916905560028101829055600381018290556004810182905560058101829055600601555b80610cb5816125d6565b915050610ba1565b506001600160a01b03851660009081526008602052604090208254610ce491908490612086565b506000610cf08461154c565b90506000606460075483610d04919061260a565b610d0e9190612629565b9050610d226006546001600160a01b031690565b6001600160a01b03166108fc829081150290604051600060405180830381858888f19350505050158015610d5a573d6000803e3d6000fd5b50610d6485610e90565b6001600160a01b03166108fc610d7a838561264b565b6040518115909202916000818181858888f19350505050158015610da2573d6000803e3d6000fd5b50610dae87878761192f565b50506040805160e0810182529384526001600160a01b03948516602080860182815284840151878501908152600060608901818152608080890151908b0190815260a098890151988b0198895260c08b01838152968352600886529682208054600180820183559184529590922099516007909502909901938455915191830180546001600160a01b03191692909916919091179097559551600287015593516003860155516004850155516005840155505160069091015550565b61096983838360405180602001604052806000815250611438565b600061060b8261174b565b6000818152600260205260408120546001600160a01b03168061060b5760405162461bcd60e51b8152602060048201526018602482015277115490cdcc8c4e881a5b9d985b1a59081d1bdad95b88125160421b604482015260640161071b565b610ef86117d6565b6064811115610f495760405162461bcd60e51b815260206004820152601a60248201527f496e76616c696420726576656e75652073686172652072617465000000000000604482015260640161071b565b600755565b60006001600160a01b038216610fb85760405162461bcd60e51b815260206004820152602960248201527f4552433732313a2061646472657373207a65726f206973206e6f7420612076616044820152683634b21037bbb732b960b91b606482015260840161071b565b506001600160a01b031660009081526003602052604090205490565b610fdc6117d6565b610fe66000611960565b565b6001600160a01b0381166000908152600860209081526040808320805482518185028101850190935280835260609493849084015b828210156110985760008481526020908190206040805160e08101825260078602909201805483526001808201546001600160a01b0316848601526002820154928401929092526003810154606084015260048101546080840152600581015460a08401526006015460c0830152908352909201910161101d565b50505050905060005b8151811015611103576110d08282815181106110bf576110bf6125aa565b60200260200101516000015161146a565b8282815181106110e2576110e26125aa565b602090810291909101015160600152806110fb816125d6565b9150506110a1565b5092915050565b611112612134565b61111b8261174b565b61115e5760405162461bcd60e51b8152602060048201526014602482015273151bdad95b88191bd95cc81b9bdd08195e1a5cdd60621b604482015260640161071b565b60006008600061116d85610e90565b6001600160a01b03166001600160a01b03168152602001908152602001600020805480602002602001604051908101604052809291908181526020016000905b828210156112285760008481526020908190206040805160e08101825260078602909201805483526001808201546001600160a01b0316848601526002820154928401929092526003810154606084015260048101546080840152600581015460a08401526006015460c083015290835290920191016111ad565b50505050905060005b815181101561128e578382828151811061124d5761124d6125aa565b602002602001015160000151141561127c57818181518110611271576112716125aa565b602002602001015192505b80611286816125d6565b915050611231565b506112988361146a565b606083015250919050565b600a546001600160a01b031633146113085760405162461bcd60e51b815260206004820152602260248201527f6f6e6c7920736572766963652070617373706f72742063616e2063616c6c20696044820152613a1760f11b606482015260840161071b565b60006008600061131785610e90565b6001600160a01b03166001600160a01b03168152602001908152602001600020905060005b81548110156113e05783828281548110611358576113586125aa565b90600052602060002090600702016000015414156113ce576113a683838381548110611386576113866125aa565b90600052602060002090600702016006015461183090919063ffffffff16565b8282815481106113b8576113b86125aa565b9060005260206000209060070201600601819055505b806113d8816125d6565b91505061133c565b5080600860006113ef86610e90565b6001600160a01b03168152602081019190915260400160002081546114149290612086565b50505050565b6060600180546106209061256f565b6114343383836119b2565b5050565b6114423383611a81565b61145e5760405162461bcd60e51b815260040161071b90612662565b61141484848484611adf565b600a546040516391f79bd360e01b8152600481018390526000916001600160a01b0316906391f79bd390602401602060405180830381865afa1580156114b4573d6000803e3d6000fd5b505050506040513d601f19601f8201168201806040525081019061060b91906125f1565b60606114e3826116fb565b60006114fa60408051602081019091526000815290565b9050600081511161151a5760405180602001604052806000815250611545565b8061152484611b12565b6040516020016115359291906126af565b6040516020818303038152906040525b9392505050565b60006115578261110a565b60c0015192915050565b6001600160a01b03918216600090815260056020908152604080832093909416825291909152205460ff1690565b6115976117d6565b6001600160a01b0381166115fc5760405162461bcd60e51b815260206004820152602660248201527f4f776e61626c653a206e6577206f776e657220697320746865207a65726f206160448201526564647265737360d01b606482015260840161071b565b61160581611960565b50565b6116106117d6565b6001600160a01b0382166116665760405162461bcd60e51b815260206004820152601b60248201527f205f746f2063616e6e6f74206265207a65726f20616464726573730000000000604482015260640161071b565b6000826001600160a01b03168260405160006040518083038185875af1925050503d80600081146116b3576040519150601f19603f3d011682016040523d82523d6000602084013e6116b8565b606091505b50509050806109695760405162461bcd60e51b815260206004820152600f60248201526e1dda5d1a191c985dc819985a5b1959608a1b604482015260640161071b565b6117048161174b565b6116055760405162461bcd60e51b8152602060048201526018602482015277115490cdcc8c4e881a5b9d985b1a59081d1bdad95b88125160421b604482015260640161071b565b6000908152600260205260409020546001600160a01b0316151590565b600081815260046020526040902080546001600160a01b0319166001600160a01b038416908117909155819061179d82610e90565b6001600160a01b03167f8c5be1e5ebec7d5bd14f71427d1e84f3dd0314c0f7b2291e5b200ac8c7c3b92560405160405180910390a45050565b6006546001600160a01b03163314610fe65760405162461bcd60e51b815260206004820181905260248201527f4f776e61626c653a2063616c6c6572206973206e6f7420746865206f776e6572604482015260640161071b565b600061154582846126de565b611434828260405180602001604052806000815250611baf565b61185e612134565b6001600160a01b038581166000818152600860208181526040808420815160e0810183528b81528084018781524293820193845260608201878152608083018d815260a084018d815260c085018a8152865460018082018955888d528a8d208851600790930201918255955195810180546001600160a01b03191696909e1695909517909c55955160028401559051600383015551600482015592516005840155965160069092019190915593909252905280549091906119229083908190612086565b509150505b949350505050565b6119393382611a81565b6119555760405162461bcd60e51b815260040161071b90612662565b610969838383611be2565b600680546001600160a01b038381166001600160a01b0319831681179093556040519116919082907f8be0079c531659141344cd1fd0a4f28419497f9722a3daafe3b4186f6b6457e090600090a35050565b816001600160a01b0316836001600160a01b03161415611a145760405162461bcd60e51b815260206004820152601960248201527f4552433732313a20617070726f766520746f2063616c6c657200000000000000604482015260640161071b565b6001600160a01b03838116600081815260056020908152604080832094871680845294825291829020805460ff191686151590811790915591519182527f17307eab39ab6107e8899845ad3d59bd9653f200f220920489ca2b5937696c31910160405180910390a3505050565b600080611a8d83610e90565b9050806001600160a01b0316846001600160a01b03161480611ab45750611ab48185611561565b806119275750836001600160a01b0316611acd846106a3565b6001600160a01b031614949350505050565b611aea848484611be2565b611af684848484611d46565b6114145760405162461bcd60e51b815260040161071b906126f6565b60606000611b1f83611e41565b600101905060008167ffffffffffffffff811115611b3f57611b3f61244b565b6040519080825280601f01601f191660200182016040528015611b69576020820181803683370190505b5090508181016020015b600019016f181899199a1a9b1b9c1cb0b131b232b360811b600a86061a8153600a8504945084611ba257611ba7565b611b73565b509392505050565b611bb98383611f19565b611bc66000848484611d46565b6109695760405162461bcd60e51b815260040161071b906126f6565b826001600160a01b0316611bf582610e90565b6001600160a01b031614611c1b5760405162461bcd60e51b815260040161071b90612748565b6001600160a01b038216611c7d5760405162461bcd60e51b8152602060048201526024808201527f4552433732313a207472616e7366657220746f20746865207a65726f206164646044820152637265737360e01b606482015260840161071b565b826001600160a01b0316611c9082610e90565b6001600160a01b031614611cb65760405162461bcd60e51b815260040161071b90612748565b600081815260046020908152604080832080546001600160a01b03199081169091556001600160a01b0387811680865260038552838620805460001901905590871680865283862080546001019055868652600290945282852080549092168417909155905184937fddf252ad1be2c89b69c2b068fc378daa952ba7f163c4a11628f55a4df523b3ef91a4505050565b60006001600160a01b0384163b15611e3957604051630a85bd0160e11b81526001600160a01b0385169063150b7a0290611d8a90339089908890889060040161278d565b6020604051808303816000875af1925050508015611dc5575060408051601f3d908101601f19168201909252611dc2918101906127ca565b60015b611e1f573d808015611df3576040519150601f19603f3d011682016040523d82523d6000602084013e611df8565b606091505b508051611e175760405162461bcd60e51b815260040161071b906126f6565b805181602001fd5b6001600160e01b031916630a85bd0160e11b149050611927565b506001611927565b60008072184f03e93ff9f4daa797ed6e38ed64bf6a1f0160401b8310611e805772184f03e93ff9f4daa797ed6e38ed64bf6a1f0160401b830492506040015b6d04ee2d6d415b85acef81000000008310611eac576d04ee2d6d415b85acef8100000000830492506020015b662386f26fc100008310611eca57662386f26fc10000830492506010015b6305f5e1008310611ee2576305f5e100830492506008015b6127108310611ef657612710830492506004015b60648310611f08576064830492506002015b600a831061060b5760010192915050565b6001600160a01b038216611f6f5760405162461bcd60e51b815260206004820181905260248201527f4552433732313a206d696e7420746f20746865207a65726f2061646472657373604482015260640161071b565b611f788161174b565b15611fc55760405162461bcd60e51b815260206004820152601c60248201527f4552433732313a20746f6b656e20616c7265616479206d696e74656400000000604482015260640161071b565b611fce8161174b565b1561201b5760405162461bcd60e51b815260206004820152601c60248201527f4552433732313a20746f6b656e20616c7265616479206d696e74656400000000604482015260640161071b565b6001600160a01b038216600081815260036020908152604080832080546001019055848352600290915280822080546001600160a01b0319168417905551839291907fddf252ad1be2c89b69c2b068fc378daa952ba7f163c4a11628f55a4df523b3ef908290a45050565b8280548282559060005260206000209060070281019282156121245760005260206000209160070282015b82811115612124578254825560018084015490830180546001600160a01b0319166001600160a01b039092169190911790556002808401549083015560038084015490830155600480840154908301556005808401549083015560068084015490830155600792830192909101906120b1565b5061213092915061217a565b5090565b6040518060e001604052806000815260200160006001600160a01b0316815260200160008152602001600081526020016000815260200160008152602001600081525090565b5b808211156121305760008082556001820180546001600160a01b031916905560028201819055600382018190556004820181905560058201819055600682015560070161217b565b6001600160e01b03198116811461160557600080fd5b6000602082840312156121eb57600080fd5b8135611545816121c3565b60005b838110156122115781810151838201526020016121f9565b838111156114145750506000910152565b6000815180845261223a8160208601602086016121f6565b601f01601f19169290920160200192915050565b6020815260006115456020830184612222565b60006020828403121561227357600080fd5b5035919050565b60008060006060848603121561228f57600080fd5b505081359360208301359350604090920135919050565b6001600160a01b038116811461160557600080fd5b600080604083850312156122ce57600080fd5b82356122d9816122a6565b946020939093013593505050565b6000602082840312156122f957600080fd5b8135611545816122a6565b6000806040838503121561231757600080fd5b50508035926020909101359150565b805182526020808201516001600160a01b03169083015260408082015190830152606080820151908301526080808201519083015260a0808201519083015260c090810151910152565b60e0810161060b8284612326565b60008060006060848603121561239357600080fd5b833561239e816122a6565b925060208401356123ae816122a6565b929592945050506040919091013590565b6020808252825182820181905260009190848201906040850190845b81811015612401576123ee838551612326565b9284019260e092909201916001016123db565b50909695505050505050565b6000806040838503121561242057600080fd5b823561242b816122a6565b91506020830135801515811461244057600080fd5b809150509250929050565b634e487b7160e01b600052604160045260246000fd5b6000806000806080858703121561247757600080fd5b8435612482816122a6565b93506020850135612492816122a6565b925060408501359150606085013567ffffffffffffffff808211156124b657600080fd5b818701915087601f8301126124ca57600080fd5b8135818111156124dc576124dc61244b565b604051601f8201601f19908116603f011681019083821181831017156125045761250461244b565b816040528281528a602084870101111561251d57600080fd5b82602086016020830137600060208483010152809550505050505092959194509250565b6000806040838503121561255457600080fd5b823561255f816122a6565b91506020830135612440816122a6565b600181811c9082168061258357607f821691505b602082108114156125a457634e487b7160e01b600052602260045260246000fd5b50919050565b634e487b7160e01b600052603260045260246000fd5b634e487b7160e01b600052601160045260246000fd5b60006000198214156125ea576125ea6125c0565b5060010190565b60006020828403121561260357600080fd5b5051919050565b6000816000190483118215151615612624576126246125c0565b500290565b60008261264657634e487b7160e01b600052601260045260246000fd5b500490565b60008282101561265d5761265d6125c0565b500390565b6020808252602d908201527f4552433732313a2063616c6c6572206973206e6f7420746f6b656e206f776e6560408201526c1c881bdc88185c1c1c9bdd9959609a1b606082015260800190565b600083516126c18184602088016121f6565b8351908301906126d58183602088016121f6565b01949350505050565b600082198211156126f1576126f16125c0565b500190565b60208082526032908201527f4552433732313a207472616e7366657220746f206e6f6e20455243373231526560408201527131b2b4bb32b91034b6b83632b6b2b73a32b960711b606082015260800190565b60208082526025908201527f4552433732313a207472616e736665722066726f6d20696e636f72726563742060408201526437bbb732b960d91b606082015260800190565b6001600160a01b03858116825284166020820152604081018390526080606082018190526000906127c090830184612222565b9695505050505050565b6000602082840312156127dc57600080fd5b8151611545816121c356fea264697066735822122078b6fa3907f9e92129f64f040146061e63a7e65a410476e2457673535a38bf7264736f6c634300080c0033",
  "devdoc": {
    "author": "Rocklabs",
    "kind": "dev",
    "methods": {
      "approve(address,uint256)": {
        "details": "See {IERC721-approve}."
      },
      "balanceOf(address)": {
        "details": "See {IERC721-balanceOf}."
      },
      "getApproved(uint256)": {
        "details": "See {IERC721-getApproved}."
      },
      "init(address)": {
        "params": {
          "hatcherServicePassport": "contract address"
        }
      },
      "isApprovedForAll(address,address)": {
        "details": "See {IERC721-isApprovedForAll}."
      },
      "mint(uint256,uint256)": {
        "details": "service provider create a new service",
        "params": {
          "fee": "the amount of payment for the service set by the service provider",
          "maxUserLimit": "maximum number of users using this service set by the service provider"
        },
        "returns": {
          "service": " the new service info"
        }
      },
      "name()": {
        "details": "See {IERC721Metadata-name}."
      },
      "owner()": {
        "details": "Returns the address of the current owner."
      },
      "ownerOf(uint256)": {
        "details": "See {IERC721-ownerOf}."
      },
      "renounceOwnership()": {
        "details": "Leaves the contract without owner. It will not be possible to call `onlyOwner` functions anymore. Can only be called by the current owner. NOTE: Renouncing ownership will leave the contract without an owner, thereby removing any functionality that is only available to the owner."
      },
      "safeTransferFrom(address,address,uint256)": {
        "details": "See {IERC721-safeTransferFrom}."
      },
      "safeTransferFrom(address,address,uint256,bytes)": {
        "details": "See {IERC721-safeTransferFrom}."
      },
      "setApprovalForAll(address,bool)": {
        "details": "See {IERC721-setApprovalForAll}."
      },
      "supportsInterface(bytes4)": {
        "details": "See {IERC165-supportsInterface}."
      },
      "symbol()": {
        "details": "See {IERC721Metadata-symbol}."
      },
      "tokenURI(uint256)": {
        "details": "See {IERC721Metadata-tokenURI}."
      },
      "transferOwnership(address)": {
        "details": "Transfers ownership of the contract to a new account (`newOwner`). Can only be called by the current owner."
      }
    },
    "title": "hatcher service",
    "version": 1
  },
  "userdoc": {
    "kind": "user",
    "methods": {
      "addServiceRevenue(uint256,uint256)": {
        "notice": "public functions "
      },
      "init(address)": {
        "notice": "call this first to set service password contract address"
      },
      "mint(uint256,uint256)": {
        "notice": "only badge nft owner could call this method"
      }
    },
    "notice": "service provider create their service that will be used for users",
    "version": 1
  },
  "storageLayout": {
    "storage": [
      {
        "astId": 216,
        "contract": "contracts/HatcherServiceCertificate.sol:HatcherServiceCertificate",
        "label": "_name",
        "offset": 0,
        "slot": "0",
        "type": "t_string_storage"
      },
      {
        "astId": 218,
        "contract": "contracts/HatcherServiceCertificate.sol:HatcherServiceCertificate",
        "label": "_symbol",
        "offset": 0,
        "slot": "1",
        "type": "t_string_storage"
      },
      {
        "astId": 222,
        "contract": "contracts/HatcherServiceCertificate.sol:HatcherServiceCertificate",
        "label": "_owners",
        "offset": 0,
        "slot": "2",
        "type": "t_mapping(t_uint256,t_address)"
      },
      {
        "astId": 226,
        "contract": "contracts/HatcherServiceCertificate.sol:HatcherServiceCertificate",
        "label": "_balances",
        "offset": 0,
        "slot": "3",
        "type": "t_mapping(t_address,t_uint256)"
      },
      {
        "astId": 230,
        "contract": "contracts/HatcherServiceCertificate.sol:HatcherServiceCertificate",
        "label": "_tokenApprovals",
        "offset": 0,
        "slot": "4",
        "type": "t_mapping(t_uint256,t_address)"
      },
      {
        "astId": 236,
        "contract": "contracts/HatcherServiceCertificate.sol:HatcherServiceCertificate",
        "label": "_operatorApprovals",
        "offset": 0,
        "slot": "5",
        "type": "t_mapping(t_address,t_mapping(t_address,t_bool))"
      },
      {
        "astId": 7,
        "contract": "contracts/HatcherServiceCertificate.sol:HatcherServiceCertificate",
        "label": "_owner",
        "offset": 0,
        "slot": "6",
        "type": "t_address"
      },
      {
        "astId": 3162,
        "contract": "contracts/HatcherServiceCertificate.sol:HatcherServiceCertificate",
        "label": "_revenueShareRate",
        "offset": 0,
        "slot": "7",
        "type": "t_uint256"
      },
      {
        "astId": 3183,
        "contract": "contracts/HatcherServiceCertificate.sol:HatcherServiceCertificate",
        "label": "_servicesData",
        "offset": 0,
        "slot": "8",
        "type": "t_mapping(t_address,t_array(t_struct(Service)3177_storage)dyn_storage)"
      },
      {
        "astId": 3186,
        "contract": "contracts/HatcherServiceCertificate.sol:HatcherServiceCertificate",
        "label": "_hatcherDeveloperBadge",
        "offset": 0,
        "slot": "9",
        "type": "t_contract(HatcherDeveloperBadge)3136"
      },
      {
        "astId": 3189,
        "contract": "contracts/HatcherServiceCertificate.sol:HatcherServiceCertificate",
        "label": "_hatcherServicePassport",
        "offset": 0,
        "slot": "10",
        "type": "t_contract(HatcherServicePassport)4398"
      },
      {
        "astId": 3191,
        "contract": "contracts/HatcherServiceCertificate.sol:HatcherServiceCertificate",
        "label": "_totalSupply",
        "offset": 0,
        "slot": "11",
        "type": "t_uint256"
      }
    ],
    "types": {
      "t_address": {
        "encoding": "inplace",
        "label": "address",
        "numberOfBytes": "20"
      },
      "t_array(t_struct(Service)3177_storage)dyn_storage": {
        "base": "t_struct(Service)3177_storage",
        "encoding": "dynamic_array",
        "label": "struct HatcherServiceCertificate.Service[]",
        "numberOfBytes": "32"
      },
      "t_bool": {
        "encoding": "inplace",
        "label": "bool",
        "numberOfBytes": "1"
      },
      "t_contract(HatcherDeveloperBadge)3136": {
        "encoding": "inplace",
        "label": "contract HatcherDeveloperBadge",
        "numberOfBytes": "20"
      },
      "t_contract(HatcherServicePassport)4398": {
        "encoding": "inplace",
        "label": "contract HatcherServicePassport",
        "numberOfBytes": "20"
      },
      "t_mapping(t_address,t_array(t_struct(Service)3177_storage)dyn_storage)": {
        "encoding": "mapping",
        "key": "t_address",
        "label": "mapping(address => struct HatcherServiceCertificate.Service[])",
        "numberOfBytes": "32",
        "value": "t_array(t_struct(Service)3177_storage)dyn_storage"
      },
      "t_mapping(t_address,t_bool)": {
        "encoding": "mapping",
        "key": "t_address",
        "label": "mapping(address => bool)",
        "numberOfBytes": "32",
        "value": "t_bool"
      },
      "t_mapping(t_address,t_mapping(t_address,t_bool))": {
        "encoding": "mapping",
        "key": "t_address",
        "label": "mapping(address => mapping(address => bool))",
        "numberOfBytes": "32",
        "value": "t_mapping(t_address,t_bool)"
      },
      "t_mapping(t_address,t_uint256)": {
        "encoding": "mapping",
        "key": "t_address",
        "label": "mapping(address => uint256)",
        "numberOfBytes": "32",
        "value": "t_uint256"
      },
      "t_mapping(t_uint256,t_address)": {
        "encoding": "mapping",
        "key": "t_uint256",
        "label": "mapping(uint256 => address)",
        "numberOfBytes": "32",
        "value": "t_address"
      },
      "t_string_storage": {
        "encoding": "bytes",
        "label": "string",
        "numberOfBytes": "32"
      },
      "t_struct(Service)3177_storage": {
        "encoding": "inplace",
        "label": "struct HatcherServiceCertificate.Service",
        "members": [
          {
            "astId": 3164,
            "contract": "contracts/HatcherServiceCertificate.sol:HatcherServiceCertificate",
            "label": "serviceId",
            "offset": 0,
            "slot": "0",
            "type": "t_uint256"
          },
          {
            "astId": 3166,
            "contract": "contracts/HatcherServiceCertificate.sol:HatcherServiceCertificate",
            "label": "owner",
            "offset": 0,
            "slot": "1",
            "type": "t_address"
          },
          {
            "astId": 3168,
            "contract": "contracts/HatcherServiceCertificate.sol:HatcherServiceCertificate",
            "label": "createdTime",
            "offset": 0,
            "slot": "2",
            "type": "t_uint256"
          },
          {
            "astId": 3170,
            "contract": "contracts/HatcherServiceCertificate.sol:HatcherServiceCertificate",
            "label": "userCount",
            "offset": 0,
            "slot": "3",
            "type": "t_uint256"
          },
          {
            "astId": 3172,
            "contract": "contracts/HatcherServiceCertificate.sol:HatcherServiceCertificate",
            "label": "maxUserLimit",
            "offset": 0,
            "slot": "4",
            "type": "t_uint256"
          },
          {
            "astId": 3174,
            "contract": "contracts/HatcherServiceCertificate.sol:HatcherServiceCertificate",
            "label": "fee",
            "offset": 0,
            "slot": "5",
            "type": "t_uint256"
          },
          {
            "astId": 3176,
            "contract": "contracts/HatcherServiceCertificate.sol:HatcherServiceCertificate",
            "label": "revenue",
            "offset": 0,
            "slot": "6",
            "type": "t_uint256"
          }
        ],
        "numberOfBytes": "224"
      },
      "t_uint256": {
        "encoding": "inplace",
        "label": "uint256",
        "numberOfBytes": "32"
      }
    }
  }
}