{
  "address": "0x2Fb436960Ae08eBD1BE09375CAC13EE5B7aEaa1b",
  "abi": [
    {
      "inputs": [
        {
          "internalType": "address",
          "name": "certificateContract",
          "type": "address"
        }
      ],
      "stateMutability": "nonpayable",
      "type": "constructor"
    },
    {
      "anonymous": false,
      "inputs": [
        {
          "indexed": true,
          "internalType": "address",
          "name": "owner",
          "type": "address"
        },
        {
          "indexed": true,
          "internalType": "address",
          "name": "approved",
          "type": "address"
        },
        {
          "indexed": true,
          "internalType": "uint256",
          "name": "tokenId",
          "type": "uint256"
        }
      ],
      "name": "Approval",
      "type": "event"
    },
    {
      "anonymous": false,
      "inputs": [
        {
          "indexed": true,
          "internalType": "address",
          "name": "owner",
          "type": "address"
        },
        {
          "indexed": true,
          "internalType": "address",
          "name": "operator",
          "type": "address"
        },
        {
          "indexed": false,
          "internalType": "bool",
          "name": "approved",
          "type": "bool"
        }
      ],
      "name": "ApprovalForAll",
      "type": "event"
    },
    {
      "anonymous": false,
      "inputs": [
        {
          "indexed": true,
          "internalType": "address",
          "name": "user",
          "type": "address"
        },
        {
          "indexed": true,
          "internalType": "uint256",
          "name": "serviceId",
          "type": "uint256"
        }
      ],
      "name": "CancelSubscription",
      "type": "event"
    },
    {
      "anonymous": false,
      "inputs": [
        {
          "indexed": true,
          "internalType": "address",
          "name": "user",
          "type": "address"
        },
        {
          "indexed": true,
          "internalType": "uint256",
          "name": "serviceId",
          "type": "uint256"
        },
        {
          "indexed": true,
          "internalType": "uint256",
          "name": "passpordId",
          "type": "uint256"
        },
        {
          "indexed": false,
          "internalType": "uint256",
          "name": "createdTime",
          "type": "uint256"
        },
        {
          "indexed": false,
          "internalType": "uint256",
          "name": "expiredTime",
          "type": "uint256"
        }
      ],
      "name": "NewSubscription",
      "type": "event"
    },
    {
      "anonymous": false,
      "inputs": [
        {
          "indexed": true,
          "internalType": "address",
          "name": "previousOwner",
          "type": "address"
        },
        {
          "indexed": true,
          "internalType": "address",
          "name": "newOwner",
          "type": "address"
        }
      ],
      "name": "OwnershipTransferred",
      "type": "event"
    },
    {
      "anonymous": false,
      "inputs": [
        {
          "indexed": true,
          "internalType": "address",
          "name": "user",
          "type": "address"
        },
        {
          "indexed": true,
          "internalType": "uint256",
          "name": "serviceId",
          "type": "uint256"
        },
        {
          "indexed": false,
          "internalType": "uint256",
          "name": "expiredTime",
          "type": "uint256"
        }
      ],
      "name": "RenewSubscription",
      "type": "event"
    },
    {
      "anonymous": false,
      "inputs": [
        {
          "indexed": true,
          "internalType": "address",
          "name": "from",
          "type": "address"
        },
        {
          "indexed": true,
          "internalType": "address",
          "name": "to",
          "type": "address"
        },
        {
          "indexed": true,
          "internalType": "uint256",
          "name": "tokenId",
          "type": "uint256"
        }
      ],
      "name": "Transfer",
      "type": "event"
    },
    {
      "inputs": [
        {
          "internalType": "address",
          "name": "to",
          "type": "address"
        },
        {
          "internalType": "uint256",
          "name": "tokenId",
          "type": "uint256"
        }
      ],
      "name": "approve",
      "outputs": [],
      "stateMutability": "nonpayable",
      "type": "function"
    },
    {
      "inputs": [
        {
          "internalType": "address",
          "name": "owner",
          "type": "address"
        }
      ],
      "name": "balanceOf",
      "outputs": [
        {
          "internalType": "uint256",
          "name": "",
          "type": "uint256"
        }
      ],
      "stateMutability": "view",
      "type": "function"
    },
    {
      "inputs": [
        {
          "internalType": "uint256",
          "name": "serviceId",
          "type": "uint256"
        },
        {
          "internalType": "address",
          "name": "user",
          "type": "address"
        }
      ],
      "name": "checkUserSubscription",
      "outputs": [
        {
          "internalType": "bool",
          "name": "",
          "type": "bool"
        }
      ],
      "stateMutability": "view",
      "type": "function"
    },
    {
      "inputs": [
        {
          "internalType": "uint256",
          "name": "serviceId",
          "type": "uint256"
        },
        {
          "internalType": "address",
          "name": "user",
          "type": "address"
        }
      ],
      "name": "checkValidSubscription",
      "outputs": [
        {
          "internalType": "bool",
          "name": "",
          "type": "bool"
        }
      ],
      "stateMutability": "view",
      "type": "function"
    },
    {
      "inputs": [
        {
          "internalType": "uint256",
          "name": "tokenId",
          "type": "uint256"
        }
      ],
      "name": "getApproved",
      "outputs": [
        {
          "internalType": "address",
          "name": "",
          "type": "address"
        }
      ],
      "stateMutability": "view",
      "type": "function"
    },
    {
      "inputs": [
        {
          "internalType": "uint256",
          "name": "serviceId",
          "type": "uint256"
        }
      ],
      "name": "getServiceUsersCount",
      "outputs": [
        {
          "internalType": "uint256",
          "name": "",
          "type": "uint256"
        }
      ],
      "stateMutability": "view",
      "type": "function"
    },
    {
      "inputs": [
        {
          "internalType": "uint256",
          "name": "serviceId",
          "type": "uint256"
        },
        {
          "internalType": "address",
          "name": "user",
          "type": "address"
        }
      ],
      "name": "getUserInfo",
      "outputs": [
        {
          "components": [
            {
              "internalType": "uint256",
              "name": "serviceId",
              "type": "uint256"
            },
            {
              "internalType": "uint256",
              "name": "passportId",
              "type": "uint256"
            },
            {
              "internalType": "uint256",
              "name": "createdTime",
              "type": "uint256"
            },
            {
              "internalType": "uint256",
              "name": "expiredTime",
              "type": "uint256"
            }
          ],
          "internalType": "struct HatcherServicePassport.UserInfo",
          "name": "userInfo",
          "type": "tuple"
        }
      ],
      "stateMutability": "view",
      "type": "function"
    },
    {
      "inputs": [
        {
          "internalType": "address",
          "name": "user",
          "type": "address"
        }
      ],
      "name": "getUserServices",
      "outputs": [
        {
          "internalType": "uint256[]",
          "name": "",
          "type": "uint256[]"
        }
      ],
      "stateMutability": "view",
      "type": "function"
    },
    {
      "inputs": [
        {
          "internalType": "address",
          "name": "user",
          "type": "address"
        }
      ],
      "name": "getUserServicesCount",
      "outputs": [
        {
          "internalType": "uint256",
          "name": "",
          "type": "uint256"
        }
      ],
      "stateMutability": "view",
      "type": "function"
    },
    {
      "inputs": [
        {
          "internalType": "address",
          "name": "owner",
          "type": "address"
        },
        {
          "internalType": "address",
          "name": "operator",
          "type": "address"
        }
      ],
      "name": "isApprovedForAll",
      "outputs": [
        {
          "internalType": "bool",
          "name": "",
          "type": "bool"
        }
      ],
      "stateMutability": "view",
      "type": "function"
    },
    {
      "inputs": [
        {
          "internalType": "uint256",
          "name": "serviceId",
          "type": "uint256"
        }
      ],
      "name": "mint",
      "outputs": [],
      "stateMutability": "payable",
      "type": "function"
    },
    {
      "inputs": [],
      "name": "name",
      "outputs": [
        {
          "internalType": "string",
          "name": "",
          "type": "string"
        }
      ],
      "stateMutability": "view",
      "type": "function"
    },
    {
      "inputs": [],
      "name": "owner",
      "outputs": [
        {
          "internalType": "address",
          "name": "",
          "type": "address"
        }
      ],
      "stateMutability": "view",
      "type": "function"
    },
    {
      "inputs": [
        {
          "internalType": "uint256",
          "name": "tokenId",
          "type": "uint256"
        }
      ],
      "name": "ownerOf",
      "outputs": [
        {
          "internalType": "address",
          "name": "",
          "type": "address"
        }
      ],
      "stateMutability": "view",
      "type": "function"
    },
    {
      "inputs": [
        {
          "internalType": "uint256",
          "name": "serviceId",
          "type": "uint256"
        },
        {
          "internalType": "address",
          "name": "user",
          "type": "address"
        }
      ],
      "name": "renew",
      "outputs": [],
      "stateMutability": "payable",
      "type": "function"
    },
    {
      "inputs": [],
      "name": "renounceOwnership",
      "outputs": [],
      "stateMutability": "nonpayable",
      "type": "function"
    },
    {
      "inputs": [
        {
          "internalType": "address",
          "name": "from",
          "type": "address"
        },
        {
          "internalType": "address",
          "name": "to",
          "type": "address"
        },
        {
          "internalType": "uint256",
          "name": "tokenId",
          "type": "uint256"
        }
      ],
      "name": "safeTransferFrom",
      "outputs": [],
      "stateMutability": "nonpayable",
      "type": "function"
    },
    {
      "inputs": [
        {
          "internalType": "address",
          "name": "from",
          "type": "address"
        },
        {
          "internalType": "address",
          "name": "to",
          "type": "address"
        },
        {
          "internalType": "uint256",
          "name": "tokenId",
          "type": "uint256"
        },
        {
          "internalType": "bytes",
          "name": "data",
          "type": "bytes"
        }
      ],
      "name": "safeTransferFrom",
      "outputs": [],
      "stateMutability": "nonpayable",
      "type": "function"
    },
    {
      "inputs": [
        {
          "internalType": "address",
          "name": "operator",
          "type": "address"
        },
        {
          "internalType": "bool",
          "name": "approved",
          "type": "bool"
        }
      ],
      "name": "setApprovalForAll",
      "outputs": [],
      "stateMutability": "nonpayable",
      "type": "function"
    },
    {
      "inputs": [
        {
          "internalType": "bytes4",
          "name": "interfaceId",
          "type": "bytes4"
        }
      ],
      "name": "supportsInterface",
      "outputs": [
        {
          "internalType": "bool",
          "name": "",
          "type": "bool"
        }
      ],
      "stateMutability": "view",
      "type": "function"
    },
    {
      "inputs": [],
      "name": "symbol",
      "outputs": [
        {
          "internalType": "string",
          "name": "",
          "type": "string"
        }
      ],
      "stateMutability": "view",
      "type": "function"
    },
    {
      "inputs": [
        {
          "internalType": "uint256",
          "name": "tokenId",
          "type": "uint256"
        }
      ],
      "name": "tokenURI",
      "outputs": [
        {
          "internalType": "string",
          "name": "",
          "type": "string"
        }
      ],
      "stateMutability": "view",
      "type": "function"
    },
    {
      "inputs": [
        {
          "internalType": "address",
          "name": "from",
          "type": "address"
        },
        {
          "internalType": "address",
          "name": "to",
          "type": "address"
        },
        {
          "internalType": "uint256",
          "name": "tokenId",
          "type": "uint256"
        }
      ],
      "name": "transferFrom",
      "outputs": [],
      "stateMutability": "nonpayable",
      "type": "function"
    },
    {
      "inputs": [
        {
          "internalType": "address",
          "name": "newOwner",
          "type": "address"
        }
      ],
      "name": "transferOwnership",
      "outputs": [],
      "stateMutability": "nonpayable",
      "type": "function"
    }
  ],
  "transactionHash": "0xd1455db8c29d33061e964a73712ee4b8883985da8f2d5dd78c92fceacc4a0fdb",
  "args": [
    "0x932FfE58f71C6d82718aBa243BbFf9067c30c09D"
  ],
  "numDeployments": 2,
  "solcInputHash": "1d562a531f2935bb6db3e51782dd5697",
  "bytecode": "0x60806040523480156200001157600080fd5b50604051620026de380380620026de8339810160408190526200003491620001e9565b604080518082018252601881527f4861746368657220536572766963652050617373706f7274000000000000000060208083019182528351808501909452600384526204853560ec1b908401528151919291620000949160009162000143565b508051620000aa90600190602084019062000143565b505050620000c7620000c1620000ed60201b60201c565b620000f1565b600780546001600160a01b0319166001600160a01b039290921691909117905562000258565b3390565b600680546001600160a01b038381166001600160a01b0319831681179093556040519116919082907f8be0079c531659141344cd1fd0a4f28419497f9722a3daafe3b4186f6b6457e090600090a35050565b82805462000151906200021b565b90600052602060002090601f016020900481019282620001755760008555620001c0565b82601f106200019057805160ff1916838001178555620001c0565b82800160010185558215620001c0579182015b82811115620001c0578251825591602001919060010190620001a3565b50620001ce929150620001d2565b5090565b5b80821115620001ce5760008155600101620001d3565b600060208284031215620001fc57600080fd5b81516001600160a01b03811681146200021457600080fd5b9392505050565b600181811c908216806200023057607f821691505b602082108114156200025257634e487b7160e01b600052602260045260246000fd5b50919050565b61247680620002686000396000f3fe60806040526004361061014b5760003560e01c80636352211e116100b6578063a0712d681161006f578063a0712d681461040d578063a22cb46514610420578063b88d4fde14610440578063c87b56dd14610460578063e985e9c514610480578063f2fde38b146104c957600080fd5b80636352211e1461035857806370a0823114610378578063715018a6146103985780638da5cb5b146103ad57806391f79bd3146103cb57806395d89b41146103f857600080fd5b806323b872dd1161010857806323b872dd146102745780633b4dd7b21461029457806342842e0e146102d857806357635148146102f85780635dc8b5db146103255780635fa640471461034557600080fd5b806301ffc9a71461015057806306fdde0314610185578063081812fc146101a7578063095ea7b3146101df5780631069f3b51461020157806313e9b6a914610254575b600080fd5b34801561015c57600080fd5b5061017061016b366004611e05565b6104e9565b60405190151581526020015b60405180910390f35b34801561019157600080fd5b5061019a61053b565b60405161017c9190611e7a565b3480156101b357600080fd5b506101c76101c2366004611e8d565b6105cd565b6040516001600160a01b03909116815260200161017c565b3480156101eb57600080fd5b506101ff6101fa366004611ebb565b6105f4565b005b34801561020d57600080fd5b5061022161021c366004611ee7565b61070f565b60405161017c91908151815260208083015190820152604080830151908201526060918201519181019190915260800190565b34801561026057600080fd5b5061017061026f366004611ee7565b610848565b34801561028057600080fd5b506101ff61028f366004611f17565b610982565b3480156102a057600080fd5b506102ca6102af366004611f58565b6001600160a01b031660009081526009602052604090205490565b60405190815260200161017c565b3480156102e457600080fd5b506101ff6102f3366004611f17565b6109b3565b34801561030457600080fd5b50610318610313366004611f58565b6109ce565b60405161017c9190611f75565b34801561033157600080fd5b50610170610340366004611ee7565b610a3a565b6101ff610353366004611ee7565b610af3565b34801561036457600080fd5b506101c7610373366004611e8d565b610e3a565b34801561038457600080fd5b506102ca610393366004611f58565b610e9a565b3480156103a457600080fd5b506101ff610f20565b3480156103b957600080fd5b506006546001600160a01b03166101c7565b3480156103d757600080fd5b506102ca6103e6366004611e8d565b60009081526008602052604090205490565b34801561040457600080fd5b5061019a610f34565b6101ff61041b366004611e8d565b610f43565b34801561042c57600080fd5b506101ff61043b366004611fc7565b61126f565b34801561044c57600080fd5b506101ff61045b36600461203c565b61127e565b34801561046c57600080fd5b5061019a61047b366004611e8d565b6112b6565b34801561048c57600080fd5b5061017061049b366004612100565b6001600160a01b03918216600090815260056020908152604080832093909416825291909152205460ff1690565b3480156104d557600080fd5b506101ff6104e4366004611f58565b61132a565b60006001600160e01b031982166380ac58cd60e01b148061051a57506001600160e01b03198216635b5e139f60e01b145b8061053557506301ffc9a760e01b6001600160e01b03198316145b92915050565b60606000805461054a9061212e565b80601f01602080910402602001604051908101604052809291908181526020018280546105769061212e565b80156105c35780601f10610598576101008083540402835291602001916105c3565b820191906000526020600020905b8154815290600101906020018083116105a657829003601f168201915b5050505050905090565b60006105d8826113a3565b506000908152600460205260409020546001600160a01b031690565b60006105ff82610e3a565b9050806001600160a01b0316836001600160a01b031614156106725760405162461bcd60e51b815260206004820152602160248201527f4552433732313a20617070726f76616c20746f2063757272656e74206f776e656044820152603960f91b60648201526084015b60405180910390fd5b336001600160a01b038216148061068e575061068e813361049b565b6107005760405162461bcd60e51b815260206004820152603d60248201527f4552433732313a20617070726f76652063616c6c6572206973206e6f7420746f60448201527f6b656e206f776e6572206f7220617070726f76656420666f7220616c6c0000006064820152608401610669565b61070a8383611402565b505050565b61073a6040518060800160405280600081526020016000815260200160008152602001600081525090565b600083815260086020908152604080832080548251818502810185019093528083529192909190849084015b828210156107c0578382906000526020600020906004020160405180608001604052908160008201548152602001600182015481526020016002820154815260200160038201548152505081526020019060010190610766565b50505050905060005b815181101561084057836001600160a01b03166108028383815181106107f1576107f1612169565b602002602001015160200151610e3a565b6001600160a01b0316141561082e5781818151811061082357610823612169565b602002602001015192505b8061083881612195565b9150506107c9565b505092915050565b6000828152600860209081526040808320805482518185028101850190935280835242938593929190849084015b828210156108d0578382906000526020600020906004020160405180608001604052908160008201548152602001600182015481526020016002820154815260200160038201548152505081526020019060010190610876565b50505050905060005b815181101561097657846001600160a01b03166109018383815181106107f1576107f1612169565b6001600160a01b03161415610964578282828151811061092357610923612169565b6020026020010151604001511115801561095a575081818151811061094a5761094a612169565b6020026020010151606001518311155b9350505050610535565b8061096e81612195565b9150506108d9565b50600095945050505050565b61098c3382611470565b6109a85760405162461bcd60e51b8152600401610669906121b0565b61070a8383836114ef565b61070a8383836040518060200160405280600081525061127e565b6001600160a01b038116600090815260096020908152604091829020805483518184028101840190945280845260609392830182828015610a2e57602002820191906000526020600020905b815481526020019060010190808311610a1a575b50505050509050919050565b6001600160a01b038116600090815260096020908152604080832080548251818502810185019093528083528493830182828015610a9757602002820191906000526020600020905b815481526020019060010190808311610a83575b5050505050905060005b8151811015610ae85784828281518110610abd57610abd612169565b60200260200101511415610ad657600192505050610535565b80610ae081612195565b915050610aa1565b506000949350505050565b600754604051634f558e7960e01b8152600481018490526001600160a01b0390911690634f558e7990602401602060405180830381865afa158015610b3c573d6000803e3d6000fd5b505050506040513d601f19601f82011682018060405250810190610b6091906121fd565b610ba75760405162461bcd60e51b815260206004820152601860248201527714d95c9d9a58d9525908191bd95cc81b9bdd08195e1a5cdd60421b6044820152606401610669565b6007546040516310551d4b60e31b8152600481018490526000916001600160a01b0316906382a8ea589060240160e060405180830381865afa158015610bf1573d6000803e3d6000fd5b505050506040513d601f19601f82011682018060405250810190610c15919061221a565b9050610c218333610a3a565b610c8b5760405162461bcd60e51b815260206004820152603560248201527f5573657220646f6573206e6f742068617320616e2061637469766520737562736044820152746372697074696f6e2c206d696e742066726973742160581b6064820152608401610669565b610c958333610848565b15610cfc5760405162461bcd60e51b815260206004820152603160248201527f557365722068617320616e2061637469766520737562736372697074696f6e2c604482015270206e6f206e65656420746f2072656e657760781b6064820152608401610669565b8060a00151341015610d205760405162461bcd60e51b8152600401610669906122a7565b610d2e838260a00151611653565b600083815260086020526040812090610d4a4262278d006122d5565b905060005b8254811015610dfb57846001600160a01b0316610d8e848381548110610d7757610d77612169565b906000526020600020906004020160010154610e3a565b6001600160a01b03161415610de95781838281548110610db057610db0612169565b9060005260206000209060040201600301819055508260086000888152602001908152602001600020908054610de7929190611d52565b505b80610df381612195565b915050610d4f565b50604051818152859033907fad47746700e8a53a6dd7ee4934a8a2db6f48b9198eaaceff60590944f4dcfc2b9060200160405180910390a35050505050565b6000818152600260205260408120546001600160a01b0316806105355760405162461bcd60e51b8152602060048201526018602482015277115490cdcc8c4e881a5b9d985b1a59081d1bdad95b88125160421b6044820152606401610669565b60006001600160a01b038216610f045760405162461bcd60e51b815260206004820152602960248201527f4552433732313a2061646472657373207a65726f206973206e6f7420612076616044820152683634b21037bbb732b960b91b6064820152608401610669565b506001600160a01b031660009081526003602052604090205490565b610f28611759565b610f3260006117b3565b565b60606001805461054a9061212e565b600754604051634f558e7960e01b8152600481018390526001600160a01b0390911690634f558e7990602401602060405180830381865afa158015610f8c573d6000803e3d6000fd5b505050506040513d601f19601f82011682018060405250810190610fb091906121fd565b610ff75760405162461bcd60e51b815260206004820152601860248201527714d95c9d9a58d9525908191bd95cc81b9bdd08195e1a5cdd60421b6044820152606401610669565b6007546040516310551d4b60e31b8152600481018390526000916001600160a01b0316906382a8ea589060240160e060405180830381865afa158015611041573d6000803e3d6000fd5b505050506040513d601f19601f82011682018060405250810190611065919061221a565b90506110718233610a3a565b156110ce5760405162461bcd60e51b815260206004820152602760248201527f5573657220616c72656164792068617320616e206163746976652073756273636044820152663934b83a34b7b760c91b6064820152608401610669565b60808101516000838152600860205260409020541061113b5760405162461bcd60e51b8152602060048201526024808201527f6578636565646564206d6178207573657220737562736372697074696f6e206c6044820152631a5b5a5d60e21b6064820152608401610669565b8060a0015134101561115f5760405162461bcd60e51b8152600401610669906122a7565b61116b33600a54611805565b42600061117b8262278d006122d5565b905061118b848460a00151611653565b60008481526008602090815260408083208151608081018352888152600a805482860190815282850189815260608401898152855460018181018855968a52888a2095516004909102909501948555915184860155516002840155516003909201919091553385526009845291842080549182018155845291832090910186905580549161121883612195565b91905055506001600a5461122c91906122ed565b6040805184815260208101849052869133917f0b07e743ff4d8ff00f2ba2ad9ccacd63d0abc6730623fa67062c4f3b3a95494b910160405180910390a450505050565b61127a33838361181f565b5050565b6112883383611470565b6112a45760405162461bcd60e51b8152600401610669906121b0565b6112b0848484846118ee565b50505050565b60606112c1826113a3565b60006112d860408051602081019091526000815290565b905060008151116112f85760405180602001604052806000815250611323565b8061130284611921565b604051602001611313929190612304565b6040516020818303038152906040525b9392505050565b611332611759565b6001600160a01b0381166113975760405162461bcd60e51b815260206004820152602660248201527f4f776e61626c653a206e6577206f776e657220697320746865207a65726f206160448201526564647265737360d01b6064820152608401610669565b6113a0816117b3565b50565b6000818152600260205260409020546001600160a01b03166113a05760405162461bcd60e51b8152602060048201526018602482015277115490cdcc8c4e881a5b9d985b1a59081d1bdad95b88125160421b6044820152606401610669565b600081815260046020526040902080546001600160a01b0319166001600160a01b038416908117909155819061143782610e3a565b6001600160a01b03167f8c5be1e5ebec7d5bd14f71427d1e84f3dd0314c0f7b2291e5b200ac8c7c3b92560405160405180910390a45050565b60008061147c83610e3a565b9050806001600160a01b0316846001600160a01b031614806114c357506001600160a01b0380821660009081526005602090815260408083209388168352929052205460ff165b806114e75750836001600160a01b03166114dc846105cd565b6001600160a01b0316145b949350505050565b826001600160a01b031661150282610e3a565b6001600160a01b0316146115285760405162461bcd60e51b815260040161066990612333565b6001600160a01b03821661158a5760405162461bcd60e51b8152602060048201526024808201527f4552433732313a207472616e7366657220746f20746865207a65726f206164646044820152637265737360e01b6064820152608401610669565b826001600160a01b031661159d82610e3a565b6001600160a01b0316146115c35760405162461bcd60e51b815260040161066990612333565b600081815260046020908152604080832080546001600160a01b03199081169091556001600160a01b0387811680865260038552838620805460001901905590871680865283862080546001019055868652600290945282852080549092168417909155905184937fddf252ad1be2c89b69c2b068fc378daa952ba7f163c4a11628f55a4df523b3ef91a4505050565b803410156116735760405162461bcd60e51b8152600401610669906122a7565b60075460405160248101849052604481018390526000916001600160a01b031690349060640160408051601f198184030181529181526020820180516001600160e01b031663446f62e760e11b179052516116ce9190612378565b60006040518083038185875af1925050503d806000811461170b576040519150601f19603f3d011682016040523d82523d6000602084013e611710565b606091505b505090508061070a5760405162461bcd60e51b81526020600482015260156024820152741d5c19185d19481c995d995b9d594819985a5b1959605a1b6044820152606401610669565b6006546001600160a01b03163314610f325760405162461bcd60e51b815260206004820181905260248201527f4f776e61626c653a2063616c6c6572206973206e6f7420746865206f776e65726044820152606401610669565b600680546001600160a01b038381166001600160a01b0319831681179093556040519116919082907f8be0079c531659141344cd1fd0a4f28419497f9722a3daafe3b4186f6b6457e090600090a35050565b61127a8282604051806020016040528060008152506119be565b816001600160a01b0316836001600160a01b031614156118815760405162461bcd60e51b815260206004820152601960248201527f4552433732313a20617070726f766520746f2063616c6c6572000000000000006044820152606401610669565b6001600160a01b03838116600081815260056020908152604080832094871680845294825291829020805460ff191686151590811790915591519182527f17307eab39ab6107e8899845ad3d59bd9653f200f220920489ca2b5937696c31910160405180910390a3505050565b6118f98484846114ef565b611905848484846119f1565b6112b05760405162461bcd60e51b815260040161066990612394565b6060600061192e83611aef565b600101905060008167ffffffffffffffff81111561194e5761194e611ff5565b6040519080825280601f01601f191660200182016040528015611978576020820181803683370190505b5090508181016020015b600019016f181899199a1a9b1b9c1cb0b131b232b360811b600a86061a8153600a85049450846119b1576119b6565b611982565b509392505050565b6119c88383611bc7565b6119d560008484846119f1565b61070a5760405162461bcd60e51b815260040161066990612394565b60006001600160a01b0384163b15611ae457604051630a85bd0160e11b81526001600160a01b0385169063150b7a0290611a359033908990889088906004016123e6565b6020604051808303816000875af1925050508015611a70575060408051601f3d908101601f19168201909252611a6d91810190612423565b60015b611aca573d808015611a9e576040519150601f19603f3d011682016040523d82523d6000602084013e611aa3565b606091505b508051611ac25760405162461bcd60e51b815260040161066990612394565b805181602001fd5b6001600160e01b031916630a85bd0160e11b1490506114e7565b506001949350505050565b60008072184f03e93ff9f4daa797ed6e38ed64bf6a1f0160401b8310611b2e5772184f03e93ff9f4daa797ed6e38ed64bf6a1f0160401b830492506040015b6d04ee2d6d415b85acef81000000008310611b5a576d04ee2d6d415b85acef8100000000830492506020015b662386f26fc100008310611b7857662386f26fc10000830492506010015b6305f5e1008310611b90576305f5e100830492506008015b6127108310611ba457612710830492506004015b60648310611bb6576064830492506002015b600a83106105355760010192915050565b6001600160a01b038216611c1d5760405162461bcd60e51b815260206004820181905260248201527f4552433732313a206d696e7420746f20746865207a65726f20616464726573736044820152606401610669565b6000818152600260205260409020546001600160a01b031615611c825760405162461bcd60e51b815260206004820152601c60248201527f4552433732313a20746f6b656e20616c7265616479206d696e746564000000006044820152606401610669565b6000818152600260205260409020546001600160a01b031615611ce75760405162461bcd60e51b815260206004820152601c60248201527f4552433732313a20746f6b656e20616c7265616479206d696e746564000000006044820152606401610669565b6001600160a01b038216600081815260036020908152604080832080546001019055848352600290915280822080546001600160a01b0319168417905551839291907fddf252ad1be2c89b69c2b068fc378daa952ba7f163c4a11628f55a4df523b3ef908290a45050565b828054828255906000526020600020906004028101928215611db65760005260206000209160040282015b82811115611db6578254825560018084015490830155600280840154908301556003808401549083015560049283019290910190611d7d565b50611dc2929150611dc6565b5090565b5b80821115611dc257600080825560018201819055600282018190556003820155600401611dc7565b6001600160e01b0319811681146113a057600080fd5b600060208284031215611e1757600080fd5b813561132381611def565b60005b83811015611e3d578181015183820152602001611e25565b838111156112b05750506000910152565b60008151808452611e66816020860160208601611e22565b601f01601f19169290920160200192915050565b6020815260006113236020830184611e4e565b600060208284031215611e9f57600080fd5b5035919050565b6001600160a01b03811681146113a057600080fd5b60008060408385031215611ece57600080fd5b8235611ed981611ea6565b946020939093013593505050565b60008060408385031215611efa57600080fd5b823591506020830135611f0c81611ea6565b809150509250929050565b600080600060608486031215611f2c57600080fd5b8335611f3781611ea6565b92506020840135611f4781611ea6565b929592945050506040919091013590565b600060208284031215611f6a57600080fd5b813561132381611ea6565b6020808252825182820181905260009190848201906040850190845b81811015611fad57835183529284019291840191600101611f91565b50909695505050505050565b80151581146113a057600080fd5b60008060408385031215611fda57600080fd5b8235611fe581611ea6565b91506020830135611f0c81611fb9565b634e487b7160e01b600052604160045260246000fd5b604051601f8201601f1916810167ffffffffffffffff8111828210171561203457612034611ff5565b604052919050565b6000806000806080858703121561205257600080fd5b843561205d81611ea6565b935060208581013561206e81611ea6565b935060408601359250606086013567ffffffffffffffff8082111561209257600080fd5b818801915088601f8301126120a657600080fd5b8135818111156120b8576120b8611ff5565b6120ca601f8201601f1916850161200b565b915080825289848285010111156120e057600080fd5b808484018584013760008482840101525080935050505092959194509250565b6000806040838503121561211357600080fd5b823561211e81611ea6565b91506020830135611f0c81611ea6565b600181811c9082168061214257607f821691505b6020821081141561216357634e487b7160e01b600052602260045260246000fd5b50919050565b634e487b7160e01b600052603260045260246000fd5b634e487b7160e01b600052601160045260246000fd5b60006000198214156121a9576121a961217f565b5060010190565b6020808252602d908201527f4552433732313a2063616c6c6572206973206e6f7420746f6b656e206f776e6560408201526c1c881bdc88185c1c1c9bdd9959609a1b606082015260800190565b60006020828403121561220f57600080fd5b815161132381611fb9565b600060e0828403121561222c57600080fd5b60405160e0810181811067ffffffffffffffff8211171561224f5761224f611ff5565b60405282518152602083015161226481611ea6565b8060208301525060408301516040820152606083015160608201526080830151608082015260a083015160a082015260c083015160c08201528091505092915050565b602080825260149082015273125b9cdd59999a58da595b9d081c185e5b595b9d60621b604082015260600190565b600082198211156122e8576122e861217f565b500190565b6000828210156122ff576122ff61217f565b500390565b60008351612316818460208801611e22565b83519083019061232a818360208801611e22565b01949350505050565b60208082526025908201527f4552433732313a207472616e736665722066726f6d20696e636f72726563742060408201526437bbb732b960d91b606082015260800190565b6000825161238a818460208701611e22565b9190910192915050565b60208082526032908201527f4552433732313a207472616e7366657220746f206e6f6e20455243373231526560408201527131b2b4bb32b91034b6b83632b6b2b73a32b960711b606082015260800190565b6001600160a01b038581168252841660208201526040810183905260806060820181905260009061241990830184611e4e565b9695505050505050565b60006020828403121561243557600080fd5b815161132381611def56fea2646970667358221220499d72d7341abbd3b018829938f6fc1a8ca69ff60eabd18ad3e346f774195bca64736f6c634300080c0033",
  "devdoc": {
    "author": "Rocklabs",
    "kind": "dev",
    "methods": {
      "approve(address,uint256)": {
        "details": "See {IERC721-approve}."
      },
      "balanceOf(address)": {
        "details": "See {IERC721-balanceOf}."
      },
      "checkUserSubscription(uint256,address)": {
        "details": "check if user already subscribed in service"
      },
      "checkValidSubscription(uint256,address)": {
        "details": "check if user's subscription is still valid."
      },
      "getApproved(uint256)": {
        "details": "See {IERC721-getApproved}."
      },
      "isApprovedForAll(address,address)": {
        "details": "See {IERC721-isApprovedForAll}."
      },
      "mint(uint256)": {
        "details": "user subscriptes a service",
        "params": {
          "serviceId": "service id"
        }
      },
      "name()": {
        "details": "See {IERC721Metadata-name}."
      },
      "owner()": {
        "details": "Returns the address of the current owner."
      },
      "ownerOf(uint256)": {
        "details": "See {IERC721-ownerOf}."
      },
      "renew(uint256,address)": {
        "details": "renew the service if the service has been expired",
        "params": {
          "serviceId": "service id",
          "user": "who wants to renew the service"
        }
      },
      "renounceOwnership()": {
        "details": "Leaves the contract without owner. It will not be possible to call `onlyOwner` functions anymore. Can only be called by the current owner. NOTE: Renouncing ownership will leave the contract without an owner, thereby removing any functionality that is only available to the owner."
      },
      "safeTransferFrom(address,address,uint256)": {
        "details": "See {IERC721-safeTransferFrom}."
      },
      "safeTransferFrom(address,address,uint256,bytes)": {
        "details": "See {IERC721-safeTransferFrom}."
      },
      "setApprovalForAll(address,bool)": {
        "details": "See {IERC721-setApprovalForAll}."
      },
      "supportsInterface(bytes4)": {
        "details": "See {IERC165-supportsInterface}."
      },
      "symbol()": {
        "details": "See {IERC721Metadata-symbol}."
      },
      "tokenURI(uint256)": {
        "details": "See {IERC721Metadata-tokenURI}."
      },
      "transferFrom(address,address,uint256)": {
        "details": "See {IERC721-transferFrom}."
      },
      "transferOwnership(address)": {
        "details": "Transfers ownership of the contract to a new account (`newOwner`). Can only be called by the current owner."
      }
    },
    "title": "hatcher service for user",
    "version": 1
  },
  "userdoc": {
    "kind": "user",
    "methods": {
      "mint(uint256)": {
        "notice": "only supports native token as payment, erc20 is going to be supported asap"
      }
    },
    "notice": "this contact is for users who could pay for the service",
    "version": 1
  },
  "storageLayout": {
    "storage": [
      {
        "astId": 216,
        "contract": "contracts/HatcherServicePassport.sol:HatcherServicePassport",
        "label": "_name",
        "offset": 0,
        "slot": "0",
        "type": "t_string_storage"
      },
      {
        "astId": 218,
        "contract": "contracts/HatcherServicePassport.sol:HatcherServicePassport",
        "label": "_symbol",
        "offset": 0,
        "slot": "1",
        "type": "t_string_storage"
      },
      {
        "astId": 222,
        "contract": "contracts/HatcherServicePassport.sol:HatcherServicePassport",
        "label": "_owners",
        "offset": 0,
        "slot": "2",
        "type": "t_mapping(t_uint256,t_address)"
      },
      {
        "astId": 226,
        "contract": "contracts/HatcherServicePassport.sol:HatcherServicePassport",
        "label": "_balances",
        "offset": 0,
        "slot": "3",
        "type": "t_mapping(t_address,t_uint256)"
      },
      {
        "astId": 230,
        "contract": "contracts/HatcherServicePassport.sol:HatcherServicePassport",
        "label": "_tokenApprovals",
        "offset": 0,
        "slot": "4",
        "type": "t_mapping(t_uint256,t_address)"
      },
      {
        "astId": 236,
        "contract": "contracts/HatcherServicePassport.sol:HatcherServicePassport",
        "label": "_operatorApprovals",
        "offset": 0,
        "slot": "5",
        "type": "t_mapping(t_address,t_mapping(t_address,t_bool))"
      },
      {
        "astId": 7,
        "contract": "contracts/HatcherServicePassport.sol:HatcherServicePassport",
        "label": "_owner",
        "offset": 0,
        "slot": "6",
        "type": "t_address"
      },
      {
        "astId": 3977,
        "contract": "contracts/HatcherServicePassport.sol:HatcherServicePassport",
        "label": "_certificateContract",
        "offset": 0,
        "slot": "7",
        "type": "t_contract(HatcherServiceCertificate)3949"
      },
      {
        "astId": 3983,
        "contract": "contracts/HatcherServicePassport.sol:HatcherServicePassport",
        "label": "_serviceUsers",
        "offset": 0,
        "slot": "8",
        "type": "t_mapping(t_uint256,t_array(t_struct(UserInfo)3974_storage)dyn_storage)"
      },
      {
        "astId": 3988,
        "contract": "contracts/HatcherServicePassport.sol:HatcherServicePassport",
        "label": "_userServices",
        "offset": 0,
        "slot": "9",
        "type": "t_mapping(t_address,t_array(t_uint256)dyn_storage)"
      },
      {
        "astId": 3990,
        "contract": "contracts/HatcherServicePassport.sol:HatcherServicePassport",
        "label": "_totalSupply",
        "offset": 0,
        "slot": "10",
        "type": "t_uint256"
      }
    ],
    "types": {
      "t_address": {
        "encoding": "inplace",
        "label": "address",
        "numberOfBytes": "20"
      },
      "t_array(t_struct(UserInfo)3974_storage)dyn_storage": {
        "base": "t_struct(UserInfo)3974_storage",
        "encoding": "dynamic_array",
        "label": "struct HatcherServicePassport.UserInfo[]",
        "numberOfBytes": "32"
      },
      "t_array(t_uint256)dyn_storage": {
        "base": "t_uint256",
        "encoding": "dynamic_array",
        "label": "uint256[]",
        "numberOfBytes": "32"
      },
      "t_bool": {
        "encoding": "inplace",
        "label": "bool",
        "numberOfBytes": "1"
      },
      "t_contract(HatcherServiceCertificate)3949": {
        "encoding": "inplace",
        "label": "contract HatcherServiceCertificate",
        "numberOfBytes": "20"
      },
      "t_mapping(t_address,t_array(t_uint256)dyn_storage)": {
        "encoding": "mapping",
        "key": "t_address",
        "label": "mapping(address => uint256[])",
        "numberOfBytes": "32",
        "value": "t_array(t_uint256)dyn_storage"
      },
      "t_mapping(t_address,t_bool)": {
        "encoding": "mapping",
        "key": "t_address",
        "label": "mapping(address => bool)",
        "numberOfBytes": "32",
        "value": "t_bool"
      },
      "t_mapping(t_address,t_mapping(t_address,t_bool))": {
        "encoding": "mapping",
        "key": "t_address",
        "label": "mapping(address => mapping(address => bool))",
        "numberOfBytes": "32",
        "value": "t_mapping(t_address,t_bool)"
      },
      "t_mapping(t_address,t_uint256)": {
        "encoding": "mapping",
        "key": "t_address",
        "label": "mapping(address => uint256)",
        "numberOfBytes": "32",
        "value": "t_uint256"
      },
      "t_mapping(t_uint256,t_address)": {
        "encoding": "mapping",
        "key": "t_uint256",
        "label": "mapping(uint256 => address)",
        "numberOfBytes": "32",
        "value": "t_address"
      },
      "t_mapping(t_uint256,t_array(t_struct(UserInfo)3974_storage)dyn_storage)": {
        "encoding": "mapping",
        "key": "t_uint256",
        "label": "mapping(uint256 => struct HatcherServicePassport.UserInfo[])",
        "numberOfBytes": "32",
        "value": "t_array(t_struct(UserInfo)3974_storage)dyn_storage"
      },
      "t_string_storage": {
        "encoding": "bytes",
        "label": "string",
        "numberOfBytes": "32"
      },
      "t_struct(UserInfo)3974_storage": {
        "encoding": "inplace",
        "label": "struct HatcherServicePassport.UserInfo",
        "members": [
          {
            "astId": 3967,
            "contract": "contracts/HatcherServicePassport.sol:HatcherServicePassport",
            "label": "serviceId",
            "offset": 0,
            "slot": "0",
            "type": "t_uint256"
          },
          {
            "astId": 3969,
            "contract": "contracts/HatcherServicePassport.sol:HatcherServicePassport",
            "label": "passportId",
            "offset": 0,
            "slot": "1",
            "type": "t_uint256"
          },
          {
            "astId": 3971,
            "contract": "contracts/HatcherServicePassport.sol:HatcherServicePassport",
            "label": "createdTime",
            "offset": 0,
            "slot": "2",
            "type": "t_uint256"
          },
          {
            "astId": 3973,
            "contract": "contracts/HatcherServicePassport.sol:HatcherServicePassport",
            "label": "expiredTime",
            "offset": 0,
            "slot": "3",
            "type": "t_uint256"
          }
        ],
        "numberOfBytes": "128"
      },
      "t_uint256": {
        "encoding": "inplace",
        "label": "uint256",
        "numberOfBytes": "32"
      }
    }
  }
}